{
  "contractName": "TradingBot",
  "abi": [
    {
      "inputs": [],
      "payable": true,
      "stateMutability": "payable",
      "type": "constructor"
    },
    {
      "payable": true,
      "stateMutability": "payable",
      "type": "fallback"
    },
    {
      "constant": true,
      "inputs": [],
      "name": "DAI",
      "outputs": [
        {
          "internalType": "address",
          "name": "",
          "type": "address"
        }
      ],
      "payable": false,
      "stateMutability": "view",
      "type": "function"
    },
    {
      "constant": true,
      "inputs": [],
      "name": "SAI",
      "outputs": [
        {
          "internalType": "address",
          "name": "",
          "type": "address"
        }
      ],
      "payable": false,
      "stateMutability": "view",
      "type": "function"
    },
    {
      "constant": true,
      "inputs": [],
      "name": "USDC",
      "outputs": [
        {
          "internalType": "address",
          "name": "",
          "type": "address"
        }
      ],
      "payable": false,
      "stateMutability": "view",
      "type": "function"
    },
    {
      "constant": true,
      "inputs": [],
      "name": "WETH",
      "outputs": [
        {
          "internalType": "address",
          "name": "",
          "type": "address"
        }
      ],
      "payable": false,
      "stateMutability": "view",
      "type": "function"
    },
    {
      "constant": true,
      "inputs": [
        {
          "internalType": "address",
          "name": "",
          "type": "address"
        }
      ],
      "name": "currencies",
      "outputs": [
        {
          "internalType": "uint256",
          "name": "",
          "type": "uint256"
        }
      ],
      "payable": false,
      "stateMutability": "view",
      "type": "function"
    },
    {
      "constant": true,
      "inputs": [],
      "name": "loan",
      "outputs": [
        {
          "internalType": "uint256",
          "name": "",
          "type": "uint256"
        }
      ],
      "payable": false,
      "stateMutability": "view",
      "type": "function"
    },
    {
      "constant": true,
      "inputs": [
        {
          "internalType": "address",
          "name": "token",
          "type": "address"
        }
      ],
      "name": "tokenToMarketId",
      "outputs": [
        {
          "internalType": "uint256",
          "name": "",
          "type": "uint256"
        }
      ],
      "payable": false,
      "stateMutability": "view",
      "type": "function"
    },
    {
      "constant": false,
      "inputs": [
        {
          "internalType": "address",
          "name": "flashToken",
          "type": "address"
        },
        {
          "internalType": "uint256",
          "name": "flashAmount",
          "type": "uint256"
        },
        {
          "internalType": "address",
          "name": "arbToken",
          "type": "address"
        },
        {
          "internalType": "bytes",
          "name": "zrxData",
          "type": "bytes"
        },
        {
          "internalType": "uint256",
          "name": "oneSplitMinReturn",
          "type": "uint256"
        },
        {
          "internalType": "uint256[]",
          "name": "oneSplitDistribution",
          "type": "uint256[]"
        }
      ],
      "name": "getFlashloan",
      "outputs": [],
      "payable": true,
      "stateMutability": "payable",
      "type": "function"
    },
    {
      "constant": false,
      "inputs": [
        {
          "internalType": "address",
          "name": "",
          "type": "address"
        },
        {
          "components": [
            {
              "internalType": "address",
              "name": "owner",
              "type": "address"
            },
            {
              "internalType": "uint256",
              "name": "number",
              "type": "uint256"
            }
          ],
          "internalType": "struct Structs.Info",
          "name": "",
          "type": "tuple"
        },
        {
          "internalType": "bytes",
          "name": "data",
          "type": "bytes"
        }
      ],
      "name": "callFunction",
      "outputs": [],
      "payable": false,
      "stateMutability": "nonpayable",
      "type": "function"
    },
    {
      "constant": false,
      "inputs": [
        {
          "internalType": "address",
          "name": "_fromToken",
          "type": "address"
        },
        {
          "internalType": "address",
          "name": "_toToken",
          "type": "address"
        },
        {
          "internalType": "uint256",
          "name": "_fromAmount",
          "type": "uint256"
        },
        {
          "internalType": "bytes",
          "name": "_0xData",
          "type": "bytes"
        },
        {
          "internalType": "uint256",
          "name": "_1SplitMinReturn",
          "type": "uint256"
        },
        {
          "internalType": "uint256[]",
          "name": "_1SplitDistribution",
          "type": "uint256[]"
        }
      ],
      "name": "arb",
      "outputs": [],
      "payable": true,
      "stateMutability": "payable",
      "type": "function"
    },
    {
      "constant": false,
      "inputs": [
        {
          "internalType": "address",
          "name": "_fromToken",
          "type": "address"
        },
        {
          "internalType": "address",
          "name": "_toToken",
          "type": "address"
        },
        {
          "internalType": "uint256",
          "name": "_fromAmount",
          "type": "uint256"
        },
        {
          "internalType": "bytes",
          "name": "_0xData",
          "type": "bytes"
        },
        {
          "internalType": "uint256",
          "name": "_1SplitMinReturn",
          "type": "uint256"
        },
        {
          "internalType": "uint256[]",
          "name": "_1SplitDistribution",
          "type": "uint256[]"
        }
      ],
      "name": "trade",
      "outputs": [],
      "payable": true,
      "stateMutability": "payable",
      "type": "function"
    },
    {
      "constant": false,
      "inputs": [
        {
          "internalType": "address",
          "name": "_from",
          "type": "address"
        },
        {
          "internalType": "uint256",
          "name": "_amount",
          "type": "uint256"
        },
        {
          "internalType": "bytes",
          "name": "_calldataHexString",
          "type": "bytes"
        }
      ],
      "name": "zrxSwap",
      "outputs": [],
      "payable": true,
      "stateMutability": "payable",
      "type": "function"
    },
    {
      "constant": false,
      "inputs": [
        {
          "internalType": "address",
          "name": "_from",
          "type": "address"
        },
        {
          "internalType": "address",
          "name": "_to",
          "type": "address"
        },
        {
          "internalType": "uint256",
          "name": "_amount",
          "type": "uint256"
        },
        {
          "internalType": "uint256",
          "name": "_minReturn",
          "type": "uint256"
        },
        {
          "internalType": "uint256[]",
          "name": "_distribution",
          "type": "uint256[]"
        }
      ],
      "name": "oneSplitSwap",
      "outputs": [],
      "payable": true,
      "stateMutability": "payable",
      "type": "function"
    },
    {
      "constant": false,
      "inputs": [],
      "name": "getWeth",
      "outputs": [],
      "payable": true,
      "stateMutability": "payable",
      "type": "function"
    },
    {
      "constant": false,
      "inputs": [
        {
          "internalType": "uint256",
          "name": "_amount",
          "type": "uint256"
        }
      ],
      "name": "approveWeth",
      "outputs": [],
      "payable": false,
      "stateMutability": "nonpayable",
      "type": "function"
    },
    {
      "constant": false,
      "inputs": [
        {
          "internalType": "address",
          "name": "_tokenAddress",
          "type": "address"
        }
      ],
      "name": "withdrawToken",
      "outputs": [],
      "payable": false,
      "stateMutability": "nonpayable",
      "type": "function"
    },
    {
      "constant": false,
      "inputs": [],
      "name": "withdrawEther",
      "outputs": [],
      "payable": false,
      "stateMutability": "nonpayable",
      "type": "function"
    }
  ],
  "bytecode": "0x6080604052731e0447b19bb6ecfdae1e4ae1694b0c3659614e4e6000806101000a81548173ffffffffffffffffffffffffffffffffffffffff021916908373ffffffffffffffffffffffffffffffffffffffff16021790555073c02aaa39b223fe8d0a0e5c4f27ead9083c756cc2600160006101000a81548173ffffffffffffffffffffffffffffffffffffffff021916908373ffffffffffffffffffffffffffffffffffffffff1602179055507389d24a6b4ccb1b6faa2625fe562bdd9a23260359600260006101000a81548173ffffffffffffffffffffffffffffffffffffffff021916908373ffffffffffffffffffffffffffffffffffffffff16021790555073a0b86991c6218b36c1d19d4a2e9eb0ce3606eb48600360006101000a81548173ffffffffffffffffffffffffffffffffffffffff021916908373ffffffffffffffffffffffffffffffffffffffff160217905550736b175474e89094c44da98b954eedeac495271d0f600460006101000a81548173ffffffffffffffffffffffffffffffffffffffff021916908373ffffffffffffffffffffffffffffffffffffffff16021790555073c586bef4a0992c495cf22e1aeee4e446cecdee0e600860006101000a81548173ffffffffffffffffffffffffffffffffffffffff021916908373ffffffffffffffffffffffffffffffffffffffff160217905550600a6009556000600a557361935cbdd02287b511119ddb11aeb42f1593b7ef600b60006101000a81548173ffffffffffffffffffffffffffffffffffffffff021916908373ffffffffffffffffffffffffffffffffffffffff1602179055507395e6f48254609a6ee006f7d493c8e5fb97094cef600c60006101000a81548173ffffffffffffffffffffffffffffffffffffffff021916908373ffffffffffffffffffffffffffffffffffffffff16021790555073a26e80e7dea86279c6d778d702cc413e6cffa777600d60006101000a81548173ffffffffffffffffffffffffffffffffffffffff021916908373ffffffffffffffffffffffffffffffffffffffff160217905550600160056000600160009054906101000a900473ffffffffffffffffffffffffffffffffffffffff1673ffffffffffffffffffffffffffffffffffffffff1673ffffffffffffffffffffffffffffffffffffffff16815260200190815260200160002081905550600260056000600260009054906101000a900473ffffffffffffffffffffffffffffffffffffffff1673ffffffffffffffffffffffffffffffffffffffff1673ffffffffffffffffffffffffffffffffffffffff16815260200190815260200160002081905550600360056000600360009054906101000a900473ffffffffffffffffffffffffffffffffffffffff1673ffffffffffffffffffffffffffffffffffffffff1673ffffffffffffffffffffffffffffffffffffffff16815260200190815260200160002081905550600460056000600460009054906101000a900473ffffffffffffffffffffffffffffffffffffffff1673ffffffffffffffffffffffffffffffffffffffff1673ffffffffffffffffffffffffffffffffffffffff16815260200190815260200160002081905550620004b7346200050f60201b60201c565b620004c834620005e860201b60201c565b33600760006101000a81548173ffffffffffffffffffffffffffffffffffffffff021916908373ffffffffffffffffffffffffffffffffffffffff1602179055506200086c565b6000600160009054906101000a900473ffffffffffffffffffffffffffffffffffffffff1673ffffffffffffffffffffffffffffffffffffffff1682604051620005599062000786565b60006040518083038185875af1925050503d806000811462000598576040519150601f19603f3d011682016040523d82523d6000602084013e6200059d565b606091505b5050905080620005e4576040517f08c379a0000000000000000000000000000000000000000000000000000000008152600401620005db90620007ca565b60405180910390fd5b5050565b600160009054906101000a900473ffffffffffffffffffffffffffffffffffffffff1673ffffffffffffffffffffffffffffffffffffffff1663095ea7b3600d60009054906101000a900473ffffffffffffffffffffffffffffffffffffffff16836040518363ffffffff1660e01b8152600401620006699291906200079d565b602060405180830381600087803b1580156200068457600080fd5b505af115801562000699573d6000803e3d6000fd5b505050506040513d601f19601f82011682018060405250620006bf9190810190620006da565b5050565b600081519050620006d48162000852565b92915050565b600060208284031215620006ed57600080fd5b6000620006fd84828501620006c3565b91505092915050565b620007118162000808565b82525050565b600062000726601283620007f7565b91507f6661696c656420746f20676574207765746800000000000000000000000000006000830152602082019050919050565b600062000768600083620007ec565b9150600082019050919050565b620007808162000848565b82525050565b6000620007938262000759565b9150819050919050565b6000604082019050620007b4600083018562000706565b620007c3602083018462000775565b9392505050565b60006020820190508181036000830152620007e58162000717565b9050919050565b600081905092915050565b600082825260208201905092915050565b6000620008158262000828565b9050919050565b60008115159050919050565b600073ffffffffffffffffffffffffffffffffffffffff82169050919050565b6000819050919050565b6200085d816200081c565b81146200086957600080fd5b50565b613122806200087c6000396000f3fe6080604052600436106100fe5760003560e01c80638b41871311610095578063d285b7b411610064578063d285b7b4146102c2578063d702c0d8146102ed578063df1e664614610309578063df99a2b214610332578063e0bab4c41461034e576100fe565b80638b41871314610215578063ad5c46481461023e578063b826878814610269578063c8c61a79146102a6576100fe565b80637362377b116100d15780637362377b1461018e5780637e68f511146101a557806389476069146101c157806389a30271146101ea576100fe565b8063107c279f1461010057806312b246dd1461010a5780634b3fb7f8146101265780636036cba314610151575b005b610108610379565b005b610124600480360361011f9190810190612162565b610414565b005b34801561013257600080fd5b5061013b6104b8565b6040516101489190612a54565b60405180910390f35b34801561015d57600080fd5b5061017860048036036101739190810190611fb2565b6104de565b6040516101859190612ce5565b60405180910390f35b34801561019a57600080fd5b506101a36104f6565b005b6101bf60048036036101ba91908101906120a9565b610614565b005b3480156101cd57600080fd5b506101e860048036036101e39190810190611fb2565b6106ba565b005b3480156101f657600080fd5b506101ff61088b565b60405161020c9190612a54565b60405180910390f35b34801561022157600080fd5b5061023c600480360361023791908101906121f1565b6108b1565b005b34801561024a57600080fd5b50610253610a5d565b6040516102609190612a54565b60405180910390f35b34801561027557600080fd5b50610290600480360361028b9190810190611fb2565b610a83565b60405161029d9190612ce5565b60405180910390f35b6102c060048036036102bb9190810190612320565b610b18565b005b3480156102ce57600080fd5b506102d7610bb8565b6040516102e49190612ce5565b60405180910390f35b6103076004803603610302919081019061225d565b610bbe565b005b34801561031557600080fd5b50610330600480360361032b91908101906123b0565b610d26565b005b61034c600480360361034791908101906120a9565b610dc2565b005b34801561035a57600080fd5b50610363610e68565b6040516103709190612a54565b60405180910390f35b600760009054906101000a900473ffffffffffffffffffffffffffffffffffffffff1673ffffffffffffffffffffffffffffffffffffffff163373ffffffffffffffffffffffffffffffffffffffff1614610409576040517f08c379a000000000000000000000000000000000000000000000000000000000815260040161040090612c25565b60405180910390fd5b61041234610e8e565b565b600760009054906101000a900473ffffffffffffffffffffffffffffffffffffffff1673ffffffffffffffffffffffffffffffffffffffff163373ffffffffffffffffffffffffffffffffffffffff16146104a4576040517f08c379a000000000000000000000000000000000000000000000000000000000815260040161049b90612c25565b60405180910390fd5b6104b18585858585610f60565b5050505050565b600260009054906101000a900473ffffffffffffffffffffffffffffffffffffffff1681565b60056020528060005260406000206000915090505481565b600760009054906101000a900473ffffffffffffffffffffffffffffffffffffffff1673ffffffffffffffffffffffffffffffffffffffff163373ffffffffffffffffffffffffffffffffffffffff1614610586576040517f08c379a000000000000000000000000000000000000000000000000000000000815260040161057d90612c25565b60405180910390fd5b600030905060008173ffffffffffffffffffffffffffffffffffffffff16319050600760009054906101000a900473ffffffffffffffffffffffffffffffffffffffff1673ffffffffffffffffffffffffffffffffffffffff166108fc829081150290604051600060405180830381858888f1935050505015801561060f573d6000803e3d6000fd5b505050565b600760009054906101000a900473ffffffffffffffffffffffffffffffffffffffff1673ffffffffffffffffffffffffffffffffffffffff163373ffffffffffffffffffffffffffffffffffffffff16146106a4576040517f08c379a000000000000000000000000000000000000000000000000000000000815260040161069b90612c25565b60405180910390fd5b6106b2868686868686611173565b505050505050565b600760009054906101000a900473ffffffffffffffffffffffffffffffffffffffff1673ffffffffffffffffffffffffffffffffffffffff163373ffffffffffffffffffffffffffffffffffffffff161461074a576040517f08c379a000000000000000000000000000000000000000000000000000000000815260040161074190612c25565b60405180910390fd5b60008173ffffffffffffffffffffffffffffffffffffffff166370a08231306040518263ffffffff1660e01b81526004016107859190612a6f565b60206040518083038186803b15801561079d57600080fd5b505afa1580156107b1573d6000803e3d6000fd5b505050506040513d601f19601f820116820180604052506107d591908101906123d9565b90508173ffffffffffffffffffffffffffffffffffffffff1663a9059cbb600760009054906101000a900473ffffffffffffffffffffffffffffffffffffffff16836040518363ffffffff1660e01b8152600401610834929190612a8a565b602060405180830381600087803b15801561084e57600080fd5b505af1158015610862573d6000803e3d6000fd5b505050506040513d601f19601f820116820180604052506108869190810190612387565b505050565b600360009054906101000a900473ffffffffffffffffffffffffffffffffffffffff1681565b6000809054906101000a900473ffffffffffffffffffffffffffffffffffffffff1673ffffffffffffffffffffffffffffffffffffffff163373ffffffffffffffffffffffffffffffffffffffff1614610940576040517f08c379a000000000000000000000000000000000000000000000000000000000815260040161093790612c85565b60405180910390fd5b600080600080606060006060888861095b9190810190611fdb565b965096509650965096509650965060008773ffffffffffffffffffffffffffffffffffffffff166370a08231306040518263ffffffff1660e01b81526004016109a49190612a6f565b60206040518083038186803b1580156109bc57600080fd5b505afa1580156109d0573d6000803e3d6000fd5b505050506040513d601f19601f820116820180604052506109f491908101906123d9565b90508686820314610a3a576040517f08c379a0000000000000000000000000000000000000000000000000000000008152600401610a3190612ca5565b60405180910390fd5b80600681905550610a4f8886898787876112b7565b505050505050505050505050565b600160009054906101000a900473ffffffffffffffffffffffffffffffffffffffff1681565b600080600560008473ffffffffffffffffffffffffffffffffffffffff1673ffffffffffffffffffffffffffffffffffffffff1681526020019081526020016000205490506000811415610b0c576040517f08c379a0000000000000000000000000000000000000000000000000000000008152600401610b0390612cc5565b60405180910390fd5b60018103915050919050565b600760009054906101000a900473ffffffffffffffffffffffffffffffffffffffff1673ffffffffffffffffffffffffffffffffffffffff163373ffffffffffffffffffffffffffffffffffffffff1614610ba8576040517f08c379a0000000000000000000000000000000000000000000000000000000008152600401610b9f90612c25565b60405180910390fd5b610bb383838361142b565b505050565b60065481565b600760009054906101000a900473ffffffffffffffffffffffffffffffffffffffff1673ffffffffffffffffffffffffffffffffffffffff163373ffffffffffffffffffffffffffffffffffffffff1614610c4e576040517f08c379a0000000000000000000000000000000000000000000000000000000008152600401610c4590612c25565b60405180910390fd5b60008873ffffffffffffffffffffffffffffffffffffffff166370a08231306040518263ffffffff1660e01b8152600401610c899190612a6f565b60206040518083038186803b158015610ca157600080fd5b505afa158015610cb5573d6000803e3d6000fd5b505050506040513d601f19601f82011682018060405250610cd991908101906123d9565b905060608989838a8a8a8a8a8a604051602001610cfe99989796959493929190612b05565b6040516020818303038152906040529050610d1a8a8a83611624565b50505050505050505050565b600760009054906101000a900473ffffffffffffffffffffffffffffffffffffffff1673ffffffffffffffffffffffffffffffffffffffff163373ffffffffffffffffffffffffffffffffffffffff1614610db6576040517f08c379a0000000000000000000000000000000000000000000000000000000008152600401610dad90612c25565b60405180910390fd5b610dbf81611a93565b50565b600760009054906101000a900473ffffffffffffffffffffffffffffffffffffffff1673ffffffffffffffffffffffffffffffffffffffff163373ffffffffffffffffffffffffffffffffffffffff1614610e52576040517f08c379a0000000000000000000000000000000000000000000000000000000008152600401610e4990612c25565b60405180910390fd5b610e608686868686866112b7565b505050505050565b600460009054906101000a900473ffffffffffffffffffffffffffffffffffffffff1681565b6000600160009054906101000a900473ffffffffffffffffffffffffffffffffffffffff1673ffffffffffffffffffffffffffffffffffffffff1682604051610ed690612a3f565b60006040518083038185875af1925050503d8060008114610f13576040519150601f19603f3d011682016040523d82523d6000602084013e610f18565b606091505b5050905080610f5c576040517f08c379a0000000000000000000000000000000000000000000000000000000008152600401610f5390612c65565b60405180910390fd5b5050565b600085905060008590506000600860009054906101000a900473ffffffffffffffffffffffffffffffffffffffff1690508273ffffffffffffffffffffffffffffffffffffffff1663095ea7b3600860009054906101000a900473ffffffffffffffffffffffffffffffffffffffff16886040518363ffffffff1660e01b8152600401610fee929190612adc565b602060405180830381600087803b15801561100857600080fd5b505af115801561101c573d6000803e3d6000fd5b505050506040513d601f19601f820116820180604052506110409190810190612387565b508073ffffffffffffffffffffffffffffffffffffffff1663e2a7515e8484898989600a546040518763ffffffff1660e01b815260040161108696959493929190612bbd565b600060405180830381600087803b1580156110a057600080fd5b505af11580156110b4573d6000803e3d6000fd5b505050508273ffffffffffffffffffffffffffffffffffffffff1663095ea7b3600860009054906101000a900473ffffffffffffffffffffffffffffffffffffffff1660006040518363ffffffff1660e01b8152600401611116929190612ab3565b602060405180830381600087803b15801561113057600080fd5b505af1158015611144573d6000803e3d6000fd5b505050506040513d601f19601f820116820180604052506111689190810190612387565b505050505050505050565b60008573ffffffffffffffffffffffffffffffffffffffff166370a08231306040518263ffffffff1660e01b81526004016111ae9190612a6f565b60206040518083038186803b1580156111c657600080fd5b505afa1580156111da573d6000803e3d6000fd5b505050506040513d601f19601f820116820180604052506111fe91908101906123d9565b905061120b87868661142b565b60008673ffffffffffffffffffffffffffffffffffffffff166370a08231306040518263ffffffff1660e01b81526004016112469190612a6f565b60206040518083038186803b15801561125e57600080fd5b505afa158015611272573d6000803e3d6000fd5b505050506040513d601f19601f8201168201806040525061129691908101906123d9565b9050600082820390506112ac888a838888610f60565b505050505050505050565b60008673ffffffffffffffffffffffffffffffffffffffff166370a08231306040518263ffffffff1660e01b81526004016112f29190612a6f565b60206040518083038186803b15801561130a57600080fd5b505afa15801561131e573d6000803e3d6000fd5b505050506040513d601f19601f8201168201806040525061134291908101906123d9565b9050611352878787878787611173565b60008773ffffffffffffffffffffffffffffffffffffffff166370a08231306040518263ffffffff1660e01b815260040161138d9190612a6f565b60206040518083038186803b1580156113a557600080fd5b505afa1580156113b9573d6000803e3d6000fd5b505050506040513d601f19601f820116820180604052506113dd91908101906123d9565b9050818111611421576040517f08c379a000000000000000000000000000000000000000000000000000000000815260040161141890612c45565b60405180910390fd5b5050505050505050565b60008390508073ffffffffffffffffffffffffffffffffffffffff1663095ea7b3600c60009054906101000a900473ffffffffffffffffffffffffffffffffffffffff16856040518363ffffffff1660e01b815260040161148d929190612adc565b602060405180830381600087803b1580156114a757600080fd5b505af11580156114bb573d6000803e3d6000fd5b505050506040513d601f19601f820116820180604052506114df9190810190612387565b50600b60009054906101000a900473ffffffffffffffffffffffffffffffffffffffff1673ffffffffffffffffffffffffffffffffffffffff1634836040516115289190612a28565b60006040518083038185875af1925050503d8060008114611565576040519150601f19603f3d011682016040523d82523d6000602084013e61156a565b606091505b5050508073ffffffffffffffffffffffffffffffffffffffff1663095ea7b3600c60009054906101000a900473ffffffffffffffffffffffffffffffffffffffff1660006040518363ffffffff1660e01b81526004016115cb929190612ab3565b602060405180830381600087803b1580156115e557600080fd5b505af11580156115f9573d6000803e3d6000fd5b505050506040513d601f19601f8201168201806040525061161d9190810190612387565b5050505050565b8273ffffffffffffffffffffffffffffffffffffffff1663095ea7b36000809054906101000a900473ffffffffffffffffffffffffffffffffffffffff16600185016040518363ffffffff1660e01b8152600401611683929190612adc565b602060405180830381600087803b15801561169d57600080fd5b505af11580156116b1573d6000803e3d6000fd5b505050506040513d601f19601f820116820180604052506116d59190810190612387565b506060600160405190808252806020026020018201604052801561171357816020015b611700611b68565b8152602001906001900390816116f85790505b5090506060600360405190808252806020026020018201604052801561175357816020015b611740611b98565b8152602001906001900390816117385790505b50905060405180604001604052803073ffffffffffffffffffffffffffffffffffffffff16815260200160008152508260008151811061178f57fe5b60200260200101819052506117a2611c04565b60405180608001604052806000151581526020016000808111156117c257fe5b81526020016000808111156117d357fe5b81526020018681525090506117e6611c42565b6001816000019060088111156117f857fe5b9081600881111561180557fe5b81525050600081602001818152505081816040018190525061182687610a83565b816060018181525050308160a0019073ffffffffffffffffffffffffffffffffffffffff16908173ffffffffffffffffffffffffffffffffffffffff1681525050808360008151811061187557fe5b6020026020010181905250611888611c42565b60088160000190600881111561189a57fe5b908160088111156118a757fe5b815250506000816020018181525050308160a0019073ffffffffffffffffffffffffffffffffffffffff16908173ffffffffffffffffffffffffffffffffffffffff1681525050858160e00181905250808460018151811061190557fe5b6020026020010181905250611918611c42565b611920611c04565b604051806080016040528060011515815260200160008081111561194057fe5b815260200160008081111561195157fe5b815260200160018b01815250905060008260000190600881111561197157fe5b9081600881111561197e57fe5b81525050600082602001818152505080826040018190525061199f8a610a83565b826060018181525050308260a0019073ffffffffffffffffffffffffffffffffffffffff16908173ffffffffffffffffffffffffffffffffffffffff168152505081866002815181106119ee57fe5b60200260200101819052506000809054906101000a900473ffffffffffffffffffffffffffffffffffffffff1673ffffffffffffffffffffffffffffffffffffffff1663a67a6a4588886040518363ffffffff1660e01b8152600401611a55929190612b86565b600060405180830381600087803b158015611a6f57600080fd5b505af1158015611a83573d6000803e3d6000fd5b5050505050505050505050505050565b600160009054906101000a900473ffffffffffffffffffffffffffffffffffffffff1673ffffffffffffffffffffffffffffffffffffffff1663095ea7b3600d60009054906101000a900473ffffffffffffffffffffffffffffffffffffffff16836040518363ffffffff1660e01b8152600401611b12929190612adc565b602060405180830381600087803b158015611b2c57600080fd5b505af1158015611b40573d6000803e3d6000fd5b505050506040513d601f19601f82011682018060405250611b649190810190612387565b5050565b6040518060400160405280600073ffffffffffffffffffffffffffffffffffffffff168152602001600081525090565b60405180610100016040528060006008811115611bb157fe5b815260200160008152602001611bc5611cae565b81526020016000815260200160008152602001600073ffffffffffffffffffffffffffffffffffffffff16815260200160008152602001606081525090565b6040518060800160405280600015158152602001600080811115611c2457fe5b8152602001600080811115611c3557fe5b8152602001600081525090565b60405180610100016040528060006008811115611c5b57fe5b815260200160008152602001611c6f611cae565b81526020016000815260200160008152602001600073ffffffffffffffffffffffffffffffffffffffff16815260200160008152602001606081525090565b6040518060800160405280600015158152602001600080811115611cce57fe5b8152602001600080811115611cdf57fe5b8152602001600081525090565b600081359050611cfb81613083565b92915050565b600081359050611d108161309a565b92915050565b60008083601f840112611d2857600080fd5b8235905067ffffffffffffffff811115611d4157600080fd5b602083019150836020820283011115611d5957600080fd5b9250929050565b600082601f830112611d7157600080fd5b8135611d84611d7f82612d2d565b612d00565b91508181835260208401935060208101905083856020840282011115611da957600080fd5b60005b83811015611dd95781611dbf8882611f88565b845260208401935060208301925050600181019050611dac565b5050505092915050565b600082601f830112611df457600080fd5b8135611e07611e0282612d55565b612d00565b91508181835260208401935060208101905083856020840282011115611e2c57600080fd5b60005b83811015611e5c5781611e428882611f88565b845260208401935060208301925050600181019050611e2f565b5050505092915050565b600081519050611e75816130b1565b92915050565b60008083601f840112611e8d57600080fd5b8235905067ffffffffffffffff811115611ea657600080fd5b602083019150836001820283011115611ebe57600080fd5b9250929050565b600082601f830112611ed657600080fd5b8135611ee9611ee482612d7d565b612d00565b91508082526020830160208301858383011115611f0557600080fd5b611f10838284613009565b50505092915050565b600082601f830112611f2a57600080fd5b8135611f3d611f3882612da9565b612d00565b91508082526020830160208301858383011115611f5957600080fd5b611f64838284613009565b50505092915050565b600060408284031215611f7f57600080fd5b81905092915050565b600081359050611f97816130c8565b92915050565b600081519050611fac816130c8565b92915050565b600060208284031215611fc457600080fd5b6000611fd284828501611cec565b91505092915050565b600080600080600080600060e0888a031215611ff657600080fd5b60006120048a828b01611d01565b97505060206120158a828b01611f88565b96505060406120268a828b01611f88565b95505060606120378a828b01611d01565b945050608088013567ffffffffffffffff81111561205457600080fd5b6120608a828b01611ec5565b93505060a06120718a828b01611f88565b92505060c088013567ffffffffffffffff81111561208e57600080fd5b61209a8a828b01611d60565b91505092959891949750929550565b60008060008060008060c087890312156120c257600080fd5b60006120d089828a01611cec565b96505060206120e189828a01611cec565b95505060406120f289828a01611f88565b945050606087013567ffffffffffffffff81111561210f57600080fd5b61211b89828a01611f19565b935050608061212c89828a01611f88565b92505060a087013567ffffffffffffffff81111561214957600080fd5b61215589828a01611de3565b9150509295509295509295565b600080600080600060a0868803121561217a57600080fd5b600061218888828901611cec565b955050602061219988828901611cec565b94505060406121aa88828901611f88565b93505060606121bb88828901611f88565b925050608086013567ffffffffffffffff8111156121d857600080fd5b6121e488828901611de3565b9150509295509295909350565b6000806000806080858703121561220757600080fd5b600061221587828801611cec565b945050602061222687828801611f6d565b935050606085013567ffffffffffffffff81111561224357600080fd5b61224f87828801611e7b565b925092505092959194509250565b60008060008060008060008060c0898b03121561227957600080fd5b60006122878b828c01611cec565b98505060206122988b828c01611f88565b97505060406122a98b828c01611cec565b965050606089013567ffffffffffffffff8111156122c657600080fd5b6122d28b828c01611e7b565b955095505060806122e58b828c01611f88565b93505060a089013567ffffffffffffffff81111561230257600080fd5b61230e8b828c01611d16565b92509250509295985092959890939650565b60008060006060848603121561233557600080fd5b600061234386828701611cec565b935050602061235486828701611f88565b925050604084013567ffffffffffffffff81111561237157600080fd5b61237d86828701611f19565b9150509250925092565b60006020828403121561239957600080fd5b60006123a784828501611e66565b91505092915050565b6000602082840312156123c257600080fd5b60006123d084828501611f88565b91505092915050565b6000602082840312156123eb57600080fd5b60006123f984828501611f9d565b91505092915050565b600061240e83836128d3565b905092915050565b600061242283836129db565b60408301905092915050565b600061243a8383612a0a565b60208301905092915050565b61244f81612f67565b82525050565b61245e81612ed4565b82525050565b61246d81612ed4565b82525050565b600061247e82612e05565b6124888185612e63565b93508360208202850161249a85612dd5565b8060005b858110156124d657848403895281516124b78582612402565b94506124c283612e3c565b925060208a0199505060018101905061249e565b50829750879550505050505092915050565b60006124f382612e10565b6124fd8185612e74565b935061250883612de5565b8060005b838110156125395781516125208882612416565b975061252b83612e49565b92505060018101905061250c565b5085935050505092915050565b60006125528385612e85565b93507f07ffffffffffffffffffffffffffffffffffffffffffffffffffffffffffffff83111561258157600080fd5b602083029250612592838584613009565b82840190509392505050565b60006125a982612e1b565b6125b38185612e85565b93506125be83612df5565b8060005b838110156125ef5781516125d6888261242e565b97506125e183612e56565b9250506001810190506125c2565b5085935050505092915050565b61260581612ef8565b82525050565b60006126178385612ea7565b9350612624838584613009565b61262d8361304b565b840190509392505050565b600061264382612e31565b61264d8185612eb8565b935061265d818560208601613018565b80840191505092915050565b600061267482612e26565b61267e8185612e96565b935061268e818560208601613018565b6126978161304b565b840191505092915050565b6126ab81612f79565b82525050565b6126ba81612f9d565b82525050565b6126c981612faf565b82525050565b6126d881612fc1565b82525050565b6126e781612fd3565b82525050565b60006126fa601883612ec3565b91507f63616c6c6572206973206e6f7420746865206f776e65722100000000000000006000830152602082019050919050565b600061273a602683612ec3565b91507f456e642062616c616e6365206d7573742065786365656420737461727420626160008301527f6c616e63652e00000000000000000000000000000000000000000000000000006020830152604082019050919050565b60006127a0601283612ec3565b91507f6661696c656420746f20676574207765746800000000000000000000000000006000830152602082019050919050565b60006127e0602c83612ec3565b91507f466c6173684c6f616e3a20636f756c642062652063616c6c656420627920447960008301527f447820706f6f6c206f6e6c7900000000000000000000000000000000000000006020830152604082019050919050565b6000612846601d83612ec3565b91507f636f6e747261637420646964206e6f742067657420746865206c6f616e0000006000830152602082019050919050565b6000612886600083612eb8565b9150600082019050919050565b60006128a0601c83612ec3565b91507f466c6173684c6f616e3a20556e737570706f7274656420746f6b656e000000006000830152602082019050919050565b6000610160830160008301516128ec60008601826126b1565b5060208301516128ff6020860182612a0a565b5060408301516129126040860182612986565b50606083015161292560c0860182612a0a565b50608083015161293860e0860182612a0a565b5060a083015161294c610100860182612455565b5060c0830151612960610120860182612a0a565b5060e08301518482036101408601526129798282612669565b9150508091505092915050565b60808201600082015161299c60008501826125fc565b5060208201516129af60208501826126c0565b5060408201516129c260408501826126cf565b5060608201516129d56060850182612a0a565b50505050565b6040820160008201516129f16000850182612455565b506020820151612a046020850182612a0a565b50505050565b612a1381612f5d565b82525050565b612a2281612f5d565b82525050565b6000612a348284612638565b915081905092915050565b6000612a4a82612879565b9150819050919050565b6000602082019050612a696000830184612464565b92915050565b6000602082019050612a846000830184612446565b92915050565b6000604082019050612a9f6000830185612446565b612aac6020830184612a19565b9392505050565b6000604082019050612ac86000830185612464565b612ad560208301846126de565b9392505050565b6000604082019050612af16000830185612464565b612afe6020830184612a19565b9392505050565b600060e082019050612b1a600083018c612464565b612b27602083018b612a19565b612b34604083018a612a19565b612b416060830189612464565b8181036080830152612b5481878961260b565b9050612b6360a0830186612a19565b81810360c0830152612b76818486612546565b90509a9950505050505050505050565b60006040820190508181036000830152612ba081856124e8565b90508181036020830152612bb48184612473565b90509392505050565b600060c082019050612bd260008301896126a2565b612bdf60208301886126a2565b612bec6040830187612a19565b612bf96060830186612a19565b8181036080830152612c0b818561259e565b9050612c1a60a0830184612a19565b979650505050505050565b60006020820190508181036000830152612c3e816126ed565b9050919050565b60006020820190508181036000830152612c5e8161272d565b9050919050565b60006020820190508181036000830152612c7e81612793565b9050919050565b60006020820190508181036000830152612c9e816127d3565b9050919050565b60006020820190508181036000830152612cbe81612839565b9050919050565b60006020820190508181036000830152612cde81612893565b9050919050565b6000602082019050612cfa6000830184612a19565b92915050565b6000604051905081810181811067ffffffffffffffff82111715612d2357600080fd5b8060405250919050565b600067ffffffffffffffff821115612d4457600080fd5b602082029050602081019050919050565b600067ffffffffffffffff821115612d6c57600080fd5b602082029050602081019050919050565b600067ffffffffffffffff821115612d9457600080fd5b601f19601f8301169050602081019050919050565b600067ffffffffffffffff821115612dc057600080fd5b601f19601f8301169050602081019050919050565b6000819050602082019050919050565b6000819050602082019050919050565b6000819050602082019050919050565b600081519050919050565b600081519050919050565b600081519050919050565b600081519050919050565b600081519050919050565b6000602082019050919050565b6000602082019050919050565b6000602082019050919050565b600082825260208201905092915050565b600082825260208201905092915050565b600082825260208201905092915050565b600082825260208201905092915050565b600082825260208201905092915050565b600081905092915050565b600082825260208201905092915050565b6000612edf82612f3d565b9050919050565b6000612ef182612f3d565b9050919050565b60008115159050919050565b6000819050612f128261305c565b919050565b6000819050612f2582613069565b919050565b6000819050612f3882613076565b919050565b600073ffffffffffffffffffffffffffffffffffffffff82169050919050565b6000819050919050565b6000612f7282612fe5565b9050919050565b6000612f8482612f8b565b9050919050565b6000612f9682612f3d565b9050919050565b6000612fa882612f04565b9050919050565b6000612fba82612f17565b9050919050565b6000612fcc82612f2a565b9050919050565b6000612fde82612f5d565b9050919050565b6000612ff082612ff7565b9050919050565b600061300282612f3d565b9050919050565b82818337600083830152505050565b60005b8381101561303657808201518184015260208101905061301b565b83811115613045576000848401525b50505050565b6000601f19601f8301169050919050565b6009811061306657fe5b50565b6001811061307357fe5b50565b6001811061308057fe5b50565b61308c81612ed4565b811461309757600080fd5b50565b6130a381612ee6565b81146130ae57600080fd5b50565b6130ba81612ef8565b81146130c557600080fd5b50565b6130d181612f5d565b81146130dc57600080fd5b5056fea365627a7a723158206d5a53f05ae0587dc26676bed99e53c173fcd2e18430e6b352a61f244eee2ca06c6578706572696d656e74616cf564736f6c63430005100040",
  "source": "pragma solidity ^0.5.0;\npragma experimental ABIEncoderV2;\n\ninterface Structs {\n    struct Val {\n        uint256 value;\n    }\n\n    enum ActionType {\n      Deposit,   // supply tokens\n      Withdraw,  // borrow tokens\n      Transfer,  // transfer balance between accounts\n      Buy,       // buy an amount of some token (externally)\n      Sell,      // sell an amount of some token (externally)\n      Trade,     // trade tokens against another account\n      Liquidate, // liquidate an undercollateralized or expiring account\n      Vaporize,  // use excess tokens to zero-out a completely negative account\n      Call       // send arbitrary data to an address\n    }\n\n    enum AssetDenomination {\n        Wei // the amount is denominated in wei\n    }\n\n    enum AssetReference {\n        Delta // the amount is given as a delta from the current value\n    }\n\n    struct AssetAmount {\n        bool sign; // true if positive\n        AssetDenomination denomination;\n        AssetReference ref;\n        uint256 value;\n    }\n\n    struct ActionArgs {\n        ActionType actionType;\n        uint256 accountId;\n        AssetAmount amount;\n        uint256 primaryMarketId;\n        uint256 secondaryMarketId;\n        address otherAddress;\n        uint256 otherAccountId;\n        bytes data;\n    }\n\n    struct Info {\n        address owner;  // The address that owns the account\n        uint256 number; // A nonce that allows a single address to control many accounts\n    }\n\n    struct Wei {\n        bool sign; // true if positive\n        uint256 value;\n    }\n}\n\ncontract DyDxPool is Structs {\n    function getAccountWei(Info memory account, uint256 marketId) public view returns (Wei memory);\n    function operate(Info[] memory, ActionArgs[] memory) public;\n}\n\n\npragma solidity ^0.5.0;\n\n\n/**\n * @dev Interface of the ERC20 standard as defined in the EIP. Does not include\n * the optional functions; to access them see `ERC20Detailed`.\n */\ninterface IERC20 {\n    function totalSupply() external view returns (uint256);\n    function balanceOf(address account) external view returns (uint256);\n    function transfer(address recipient, uint256 amount) external returns (bool);\n    function allowance(address owner, address spender) external view returns (uint256);\n    function approve(address spender, uint256 amount) external returns (bool);\n    function transferFrom(address sender, address recipient, uint256 amount) external returns (bool);\n    event Transfer(address indexed from, address indexed to, uint256 value);\n    event Approval(address indexed owner, address indexed spender, uint256 value);\n}\n\n\npragma solidity ^0.5.0;\n\n\n\n\ncontract DyDxFlashLoan is Structs {\n    DyDxPool pool = DyDxPool(0x1E0447b19BB6EcFdAe1e4AE1694b0C3659614e4e);\n\n    address public WETH = 0xC02aaA39b223FE8D0A0e5C4F27eAD9083C756Cc2;\n    address public SAI = 0x89d24A6b4CcB1B6fAA2625fE562bDD9a23260359;\n    address public USDC = 0xA0b86991c6218b36c1d19D4a2e9Eb0cE3606eB48;\n    address public DAI = 0x6B175474E89094C44Da98b954EedeAC495271d0F;\n    mapping(address => uint256) public currencies;\n\n    constructor() public {\n        currencies[WETH] = 1;\n        currencies[SAI] = 2;\n        currencies[USDC] = 3;\n        currencies[DAI] = 4;\n    }\n\n    modifier onlyPool() {\n        require(\n            msg.sender == address(pool),\n            \"FlashLoan: could be called by DyDx pool only\"\n        );\n        _;\n    }\n\n    function tokenToMarketId(address token) public view returns (uint256) {\n        uint256 marketId = currencies[token];\n        require(marketId != 0, \"FlashLoan: Unsupported token\");\n        return marketId - 1;\n    }\n\n    // the DyDx will call `callFunction(address sender, Info memory accountInfo, bytes memory data) public` after during `operate` call\n    function flashloan(address token, uint256 amount, bytes memory data)\n        internal\n    {\n        IERC20(token).approve(address(pool), amount + 1);\n        Info[] memory infos = new Info[](1);\n        ActionArgs[] memory args = new ActionArgs[](3);\n\n        infos[0] = Info(address(this), 0);\n\n        AssetAmount memory wamt = AssetAmount(\n            false,\n            AssetDenomination.Wei,\n            AssetReference.Delta,\n            amount\n        );\n        ActionArgs memory withdraw;\n        withdraw.actionType = ActionType.Withdraw;\n        withdraw.accountId = 0;\n        withdraw.amount = wamt;\n        withdraw.primaryMarketId = tokenToMarketId(token);\n        withdraw.otherAddress = address(this);\n\n        args[0] = withdraw;\n\n        ActionArgs memory call;\n        call.actionType = ActionType.Call;\n        call.accountId = 0;\n        call.otherAddress = address(this);\n        call.data = data;\n\n        args[1] = call;\n\n        ActionArgs memory deposit;\n        AssetAmount memory damt = AssetAmount(\n            true,\n            AssetDenomination.Wei,\n            AssetReference.Delta,\n            amount + 1\n        );\n        deposit.actionType = ActionType.Deposit;\n        deposit.accountId = 0;\n        deposit.amount = damt;\n        deposit.primaryMarketId = tokenToMarketId(token);\n        deposit.otherAddress = address(this);\n\n        args[2] = deposit;\n\n        pool.operate(infos, args);\n    }\n}\n\n\npragma solidity ^0.5.0;\n\n\ncontract IOneSplit {\n    function getExpectedReturn(\n        IERC20 fromToken,\n        IERC20 toToken,\n        uint256 amount,\n        uint256 parts,\n        uint256 disableFlags\n    )\n        public\n        view\n        returns(\n            uint256 returnAmount,\n            uint256[] memory distribution\n        );\n\n    function swap(\n        IERC20 fromToken,\n        IERC20 toToken,\n        uint256 amount,\n        uint256 minReturn,\n        uint256[] memory distribution,\n        uint256 disableFlags\n    ) public payable;\n}\n\ncontract TradingBot is DyDxFlashLoan {\n    uint256 public loan;\n\n    // Addresses\n    address payable OWNER;\n\n    // OneSplit Config\n    address ONE_SPLIT_ADDRESS = 0xC586BeF4a0992C495Cf22e1aeEE4E446CECDee0E;\n    uint256 PARTS = 10;\n    uint256 FLAGS = 0;\n\n    // ZRX Config\n    address ZRX_EXCHANGE_ADDRESS = 0x61935CbDd02287B511119DDb11Aeb42F1593b7Ef;\n    address ZRX_ERC20_PROXY_ADDRESS = 0x95E6F48254609A6ee006F7D493c8e5fB97094ceF;\n    address ZRX_STAKING_PROXY = 0xa26e80e7Dea86279c6d778D702Cc413E6CFfA777; // Fee collector\n\n    // Modifiers\n    modifier onlyOwner() {\n        require(msg.sender == OWNER, \"caller is not the owner!\");\n        _;\n    }\n\n    // Allow the contract to receive Ether\n    function () external payable  {}\n\n    constructor() public payable {\n        _getWeth(msg.value);\n        _approveWeth(msg.value);\n        OWNER = msg.sender;\n    }\n\n    function getFlashloan(address flashToken, uint256 flashAmount, address arbToken, bytes calldata zrxData, uint256 oneSplitMinReturn, uint256[] calldata oneSplitDistribution) external payable onlyOwner {\n        uint256 balanceBefore = IERC20(flashToken).balanceOf(address(this));\n        bytes memory data = abi.encode(flashToken, flashAmount, balanceBefore, arbToken, zrxData, oneSplitMinReturn, oneSplitDistribution);\n        flashloan(flashToken, flashAmount, data); // execution goes to `callFunction`\n\n        // and this point we have succefully paid the dept\n    }\n\n    function callFunction(\n        address, /* sender */\n        Info calldata, /* accountInfo */\n        bytes calldata data\n    ) external onlyPool {\n        (address flashToken, uint256 flashAmount, uint256 balanceBefore, address arbToken, bytes memory zrxData, uint256 oneSplitMinReturn, uint256[] memory oneSplitDistribution) = abi\n            .decode(data, (address, uint256, uint256, address, bytes, uint256, uint256[]));\n        uint256 balanceAfter = IERC20(flashToken).balanceOf(address(this));\n        require(\n            balanceAfter - balanceBefore == flashAmount,\n            \"contract did not get the loan\"\n        );\n        loan = balanceAfter;\n\n        // do whatever you want with the money\n        // the dept will be automatically withdrawn from this contract at the end of execution\n        _arb(flashToken, arbToken, flashAmount, zrxData, oneSplitMinReturn, oneSplitDistribution);\n    }\n\n    function arb(address _fromToken, address _toToken, uint256 _fromAmount, bytes memory _0xData, uint256 _1SplitMinReturn, uint256[] memory _1SplitDistribution) onlyOwner payable public {\n        _arb(_fromToken, _toToken, _fromAmount, _0xData, _1SplitMinReturn, _1SplitDistribution);\n    }\n\n    function _arb(address _fromToken, address _toToken, uint256 _fromAmount, bytes memory _0xData, uint256 _1SplitMinReturn, uint256[] memory _1SplitDistribution) internal {\n        // Track original balance\n        uint256 _startBalance = IERC20(_fromToken).balanceOf(address(this));\n\n        // Perform the arb trade\n        _trade(_fromToken, _toToken, _fromAmount, _0xData, _1SplitMinReturn, _1SplitDistribution);\n\n        // Track result balance\n        uint256 _endBalance = IERC20(_fromToken).balanceOf(address(this));\n\n        // Require that arbitrage is profitable\n        require(_endBalance > _startBalance, \"End balance must exceed start balance.\");\n    }\n\n    function trade(address _fromToken, address _toToken, uint256 _fromAmount, bytes memory _0xData, uint256 _1SplitMinReturn, uint256[] memory _1SplitDistribution) onlyOwner payable public {\n        _trade(_fromToken, _toToken, _fromAmount, _0xData, _1SplitMinReturn, _1SplitDistribution);\n    }\n\n    function _trade(address _fromToken, address _toToken, uint256 _fromAmount, bytes memory _0xData, uint256 _1SplitMinReturn, uint256[] memory _1SplitDistribution) internal {\n        // Track the balance of the token RECEIVED from the trade\n        uint256 _beforeBalance = IERC20(_toToken).balanceOf(address(this));\n\n        // Swap on 0x: give _fromToken, receive _toToken\n        _zrxSwap(_fromToken, _fromAmount, _0xData);\n\n        // Calculate the how much of the token we received\n        uint256 _afterBalance = IERC20(_toToken).balanceOf(address(this));\n\n        // Read _toToken balance after swap\n        uint256 _toAmount = _afterBalance - _beforeBalance;\n\n        // Swap on 1Split: give _toToken, receive _fromToken\n        _oneSplitSwap(_toToken, _fromToken, _toAmount, _1SplitMinReturn, _1SplitDistribution);\n    }\n\n    function zrxSwap(address _from, uint256 _amount, bytes memory _calldataHexString) onlyOwner public payable {\n        _zrxSwap(_from, _amount, _calldataHexString);\n    }\n\n    function _zrxSwap(address _from, uint256 _amount, bytes memory _calldataHexString) internal {\n        // Approve tokens\n        IERC20 _fromIERC20 = IERC20(_from);\n        _fromIERC20.approve(ZRX_ERC20_PROXY_ADDRESS, _amount);\n\n        // Swap tokens\n        address(ZRX_EXCHANGE_ADDRESS).call.value(msg.value)(_calldataHexString);\n\n        // Reset approval\n        _fromIERC20.approve(ZRX_ERC20_PROXY_ADDRESS, 0);\n    }\n\n    function oneSplitSwap(address _from, address _to, uint256 _amount, uint256 _minReturn, uint256[] memory _distribution) onlyOwner public payable {\n        _oneSplitSwap(_from, _to, _amount, _minReturn, _distribution);\n    }\n\n    function _oneSplitSwap(address _from, address _to, uint256 _amount, uint256 _minReturn, uint256[] memory _distribution) internal {\n        // Setup contracts\n        IERC20 _fromIERC20 = IERC20(_from);\n        IERC20 _toIERC20 = IERC20(_to);\n        IOneSplit _oneSplitContract = IOneSplit(ONE_SPLIT_ADDRESS);\n\n        // Approve tokens\n        _fromIERC20.approve(ONE_SPLIT_ADDRESS, _amount);\n\n        // Swap tokens: give _from, get _to\n        _oneSplitContract.swap(_fromIERC20, _toIERC20, _amount, _minReturn, _distribution, FLAGS);\n\n        // Reset approval\n        _fromIERC20.approve(ONE_SPLIT_ADDRESS, 0);\n    }\n\n    function getWeth() public payable onlyOwner {\n        _getWeth(msg.value);\n    }\n\n    function _getWeth(uint256 _amount) internal {\n        (bool success, ) = WETH.call.value(_amount)(\"\");\n        require(success, \"failed to get weth\");\n    }\n\n    function approveWeth(uint256 _amount) public onlyOwner {\n        _approveWeth(_amount);\n    }\n\n    function _approveWeth(uint256 _amount) internal {\n        IERC20(WETH).approve(ZRX_STAKING_PROXY, _amount);\n    }\n\n    // KEEP THIS FUNCTION IN CASE THE CONTRACT RECEIVES TOKENS!\n    function withdrawToken(address _tokenAddress) public onlyOwner {\n        uint256 balance = IERC20(_tokenAddress).balanceOf(address(this));\n        IERC20(_tokenAddress).transfer(OWNER, balance);\n    }\n\n    // KEEP THIS FUNCTION IN CASE THE CONTRACT KEEPS LEFTOVER ETHER!\n    function withdrawEther() public onlyOwner {\n        address self = address(this); // workaround for a possible solidity bug\n        uint256 balance = self.balance;\n        address(OWNER).transfer(balance);\n    }\n}",
  "sourcePath": "/home/ec2-user/environment/projects/defi-advanced-bot/src/contracts/TradingBot.sol",
  "compiler": {
    "name": "solc",
    "version": "0.5.16+commit.9c3226ce.Emscripten.clang"
  },
  "schemaVersion": "3.3.2",
  "updatedAt": "2021-01-28T02:33:50.922Z",
  "networkType": "ethereum",
  "devdoc": {
    "methods": {}
  },
  "userdoc": {
    "methods": {}
  }
}