{
  "contractName": "TradingBot",
  "abi": [
    {
      "inputs": [
        {
          "internalType": "address",
          "name": "dydxPool",
          "type": "address"
        },
        {
          "internalType": "address",
          "name": "weth",
          "type": "address"
        },
        {
          "internalType": "address",
          "name": "sai",
          "type": "address"
        },
        {
          "internalType": "address",
          "name": "usdc",
          "type": "address"
        },
        {
          "internalType": "address",
          "name": "dai",
          "type": "address"
        },
        {
          "internalType": "address",
          "name": "oneInchSplit",
          "type": "address"
        },
        {
          "internalType": "address",
          "name": "zrxExchange",
          "type": "address"
        },
        {
          "internalType": "address",
          "name": "zrxErc20Proxy",
          "type": "address"
        },
        {
          "internalType": "address",
          "name": "zrxStakingProxy",
          "type": "address"
        }
      ],
      "payable": true,
      "stateMutability": "payable",
      "type": "constructor"
    },
    {
      "payable": true,
      "stateMutability": "payable",
      "type": "fallback"
    },
    {
      "constant": true,
      "inputs": [],
      "name": "DAI",
      "outputs": [
        {
          "internalType": "address",
          "name": "",
          "type": "address"
        }
      ],
      "payable": false,
      "stateMutability": "view",
      "type": "function"
    },
    {
      "constant": true,
      "inputs": [],
      "name": "POOL",
      "outputs": [
        {
          "internalType": "address",
          "name": "",
          "type": "address"
        }
      ],
      "payable": false,
      "stateMutability": "view",
      "type": "function"
    },
    {
      "constant": true,
      "inputs": [],
      "name": "SAI",
      "outputs": [
        {
          "internalType": "address",
          "name": "",
          "type": "address"
        }
      ],
      "payable": false,
      "stateMutability": "view",
      "type": "function"
    },
    {
      "constant": true,
      "inputs": [],
      "name": "USDC",
      "outputs": [
        {
          "internalType": "address",
          "name": "",
          "type": "address"
        }
      ],
      "payable": false,
      "stateMutability": "view",
      "type": "function"
    },
    {
      "constant": true,
      "inputs": [],
      "name": "WETH",
      "outputs": [
        {
          "internalType": "address",
          "name": "",
          "type": "address"
        }
      ],
      "payable": false,
      "stateMutability": "view",
      "type": "function"
    },
    {
      "constant": true,
      "inputs": [
        {
          "internalType": "address",
          "name": "",
          "type": "address"
        }
      ],
      "name": "currencies",
      "outputs": [
        {
          "internalType": "uint256",
          "name": "",
          "type": "uint256"
        }
      ],
      "payable": false,
      "stateMutability": "view",
      "type": "function"
    },
    {
      "constant": true,
      "inputs": [],
      "name": "loan",
      "outputs": [
        {
          "internalType": "uint256",
          "name": "",
          "type": "uint256"
        }
      ],
      "payable": false,
      "stateMutability": "view",
      "type": "function"
    },
    {
      "constant": true,
      "inputs": [
        {
          "internalType": "address",
          "name": "token",
          "type": "address"
        }
      ],
      "name": "tokenToMarketId",
      "outputs": [
        {
          "internalType": "uint256",
          "name": "",
          "type": "uint256"
        }
      ],
      "payable": false,
      "stateMutability": "view",
      "type": "function"
    },
    {
      "constant": false,
      "inputs": [
        {
          "internalType": "address",
          "name": "flashToken",
          "type": "address"
        },
        {
          "internalType": "uint256",
          "name": "flashAmount",
          "type": "uint256"
        },
        {
          "internalType": "address",
          "name": "arbToken",
          "type": "address"
        },
        {
          "internalType": "bytes",
          "name": "zrxData",
          "type": "bytes"
        },
        {
          "internalType": "uint256",
          "name": "oneSplitMinReturn",
          "type": "uint256"
        },
        {
          "internalType": "uint256[]",
          "name": "oneSplitDistribution",
          "type": "uint256[]"
        }
      ],
      "name": "getFlashloan",
      "outputs": [],
      "payable": true,
      "stateMutability": "payable",
      "type": "function"
    },
    {
      "constant": false,
      "inputs": [
        {
          "internalType": "address",
          "name": "",
          "type": "address"
        },
        {
          "components": [
            {
              "internalType": "address",
              "name": "owner",
              "type": "address"
            },
            {
              "internalType": "uint256",
              "name": "number",
              "type": "uint256"
            }
          ],
          "internalType": "struct Structs.Info",
          "name": "",
          "type": "tuple"
        },
        {
          "internalType": "bytes",
          "name": "data",
          "type": "bytes"
        }
      ],
      "name": "callFunction",
      "outputs": [],
      "payable": false,
      "stateMutability": "nonpayable",
      "type": "function"
    },
    {
      "constant": false,
      "inputs": [
        {
          "internalType": "address",
          "name": "_fromToken",
          "type": "address"
        },
        {
          "internalType": "address",
          "name": "_toToken",
          "type": "address"
        },
        {
          "internalType": "uint256",
          "name": "_fromAmount",
          "type": "uint256"
        },
        {
          "internalType": "bytes",
          "name": "_0xData",
          "type": "bytes"
        },
        {
          "internalType": "uint256",
          "name": "_1SplitMinReturn",
          "type": "uint256"
        },
        {
          "internalType": "uint256[]",
          "name": "_1SplitDistribution",
          "type": "uint256[]"
        }
      ],
      "name": "arb",
      "outputs": [],
      "payable": true,
      "stateMutability": "payable",
      "type": "function"
    },
    {
      "constant": false,
      "inputs": [
        {
          "internalType": "address",
          "name": "_fromToken",
          "type": "address"
        },
        {
          "internalType": "address",
          "name": "_toToken",
          "type": "address"
        },
        {
          "internalType": "uint256",
          "name": "_fromAmount",
          "type": "uint256"
        },
        {
          "internalType": "bytes",
          "name": "_0xData",
          "type": "bytes"
        },
        {
          "internalType": "uint256",
          "name": "_1SplitMinReturn",
          "type": "uint256"
        },
        {
          "internalType": "uint256[]",
          "name": "_1SplitDistribution",
          "type": "uint256[]"
        }
      ],
      "name": "trade",
      "outputs": [],
      "payable": true,
      "stateMutability": "payable",
      "type": "function"
    },
    {
      "constant": false,
      "inputs": [
        {
          "internalType": "address",
          "name": "_from",
          "type": "address"
        },
        {
          "internalType": "uint256",
          "name": "_amount",
          "type": "uint256"
        },
        {
          "internalType": "bytes",
          "name": "_calldataHexString",
          "type": "bytes"
        }
      ],
      "name": "zrxSwap",
      "outputs": [],
      "payable": true,
      "stateMutability": "payable",
      "type": "function"
    },
    {
      "constant": false,
      "inputs": [
        {
          "internalType": "address",
          "name": "_from",
          "type": "address"
        },
        {
          "internalType": "address",
          "name": "_to",
          "type": "address"
        },
        {
          "internalType": "uint256",
          "name": "_amount",
          "type": "uint256"
        },
        {
          "internalType": "uint256",
          "name": "_minReturn",
          "type": "uint256"
        },
        {
          "internalType": "uint256[]",
          "name": "_distribution",
          "type": "uint256[]"
        }
      ],
      "name": "oneSplitSwap",
      "outputs": [],
      "payable": true,
      "stateMutability": "payable",
      "type": "function"
    },
    {
      "constant": false,
      "inputs": [],
      "name": "getWeth",
      "outputs": [],
      "payable": true,
      "stateMutability": "payable",
      "type": "function"
    },
    {
      "constant": false,
      "inputs": [
        {
          "internalType": "uint256",
          "name": "_amount",
          "type": "uint256"
        }
      ],
      "name": "approveWeth",
      "outputs": [],
      "payable": false,
      "stateMutability": "nonpayable",
      "type": "function"
    },
    {
      "constant": false,
      "inputs": [
        {
          "internalType": "address",
          "name": "_tokenAddress",
          "type": "address"
        }
      ],
      "name": "withdrawToken",
      "outputs": [],
      "payable": false,
      "stateMutability": "nonpayable",
      "type": "function"
    },
    {
      "constant": false,
      "inputs": [],
      "name": "withdrawEther",
      "outputs": [],
      "payable": false,
      "stateMutability": "nonpayable",
      "type": "function"
    }
  ],
  "bytecode": "0x6080604052600a80556000600b5560405162003b2938038062003b29833981810160405262000032919081019062000714565b620000478989898989620000dd60201b60201c565b6200005a8383836200042660201b60201c565b6200006b84620004ee60201b60201c565b6200007c346200053260201b60201c565b6200008d346200060b60201b60201c565b33600860006101000a81548173ffffffffffffffffffffffffffffffffffffffff021916908373ffffffffffffffffffffffffffffffffffffffff16021790555050505050505050505062000999565b846000806101000a81548173ffffffffffffffffffffffffffffffffffffffff021916908373ffffffffffffffffffffffffffffffffffffffff16021790555083600160006101000a81548173ffffffffffffffffffffffffffffffffffffffff021916908373ffffffffffffffffffffffffffffffffffffffff16021790555082600260006101000a81548173ffffffffffffffffffffffffffffffffffffffff021916908373ffffffffffffffffffffffffffffffffffffffff16021790555081600360006101000a81548173ffffffffffffffffffffffffffffffffffffffff021916908373ffffffffffffffffffffffffffffffffffffffff16021790555080600460006101000a81548173ffffffffffffffffffffffffffffffffffffffff021916908373ffffffffffffffffffffffffffffffffffffffff160217905550600160066000600160009054906101000a900473ffffffffffffffffffffffffffffffffffffffff1673ffffffffffffffffffffffffffffffffffffffff1673ffffffffffffffffffffffffffffffffffffffff16815260200190815260200160002081905550600260066000600260009054906101000a900473ffffffffffffffffffffffffffffffffffffffff1673ffffffffffffffffffffffffffffffffffffffff1673ffffffffffffffffffffffffffffffffffffffff16815260200190815260200160002081905550600360066000600360009054906101000a900473ffffffffffffffffffffffffffffffffffffffff1673ffffffffffffffffffffffffffffffffffffffff1673ffffffffffffffffffffffffffffffffffffffff16815260200190815260200160002081905550600460066000600460009054906101000a900473ffffffffffffffffffffffffffffffffffffffff1673ffffffffffffffffffffffffffffffffffffffff1673ffffffffffffffffffffffffffffffffffffffff168152602001908152602001600020819055506000809054906101000a900473ffffffffffffffffffffffffffffffffffffffff16600560006101000a81548173ffffffffffffffffffffffffffffffffffffffff021916908373ffffffffffffffffffffffffffffffffffffffff1602179055505050505050565b82600c60006101000a81548173ffffffffffffffffffffffffffffffffffffffff021916908373ffffffffffffffffffffffffffffffffffffffff16021790555081600d60006101000a81548173ffffffffffffffffffffffffffffffffffffffff021916908373ffffffffffffffffffffffffffffffffffffffff16021790555080600e60006101000a81548173ffffffffffffffffffffffffffffffffffffffff021916908373ffffffffffffffffffffffffffffffffffffffff160217905550505050565b80600960006101000a81548173ffffffffffffffffffffffffffffffffffffffff021916908373ffffffffffffffffffffffffffffffffffffffff16021790555050565b6000600160009054906101000a900473ffffffffffffffffffffffffffffffffffffffff1673ffffffffffffffffffffffffffffffffffffffff16826040516200057c9062000899565b60006040518083038185875af1925050503d8060008114620005bb576040519150601f19603f3d011682016040523d82523d6000602084013e620005c0565b606091505b505090508062000607576040517f08c379a0000000000000000000000000000000000000000000000000000000008152600401620005fe90620008dd565b60405180910390fd5b5050565b600160009054906101000a900473ffffffffffffffffffffffffffffffffffffffff1673ffffffffffffffffffffffffffffffffffffffff1663095ea7b3600e60009054906101000a900473ffffffffffffffffffffffffffffffffffffffff16836040518363ffffffff1660e01b81526004016200068c929190620008b0565b602060405180830381600087803b158015620006a757600080fd5b505af1158015620006bc573d6000803e3d6000fd5b505050506040513d601f19601f82011682018060405250620006e29190810190620007ed565b5050565b600081519050620006f78162000965565b92915050565b6000815190506200070e816200097f565b92915050565b60008060008060008060008060006101208a8c0312156200073457600080fd5b6000620007448c828d01620006e6565b9950506020620007578c828d01620006e6565b98505060406200076a8c828d01620006e6565b97505060606200077d8c828d01620006e6565b9650506080620007908c828d01620006e6565b95505060a0620007a38c828d01620006e6565b94505060c0620007b68c828d01620006e6565b93505060e0620007c98c828d01620006e6565b925050610100620007dd8c828d01620006e6565b9150509295985092959850929598565b6000602082840312156200080057600080fd5b60006200081084828501620006fd565b91505092915050565b62000824816200091b565b82525050565b6000620008396012836200090a565b91507f6661696c656420746f20676574207765746800000000000000000000000000006000830152602082019050919050565b60006200087b600083620008ff565b9150600082019050919050565b62000893816200095b565b82525050565b6000620008a6826200086c565b9150819050919050565b6000604082019050620008c7600083018562000819565b620008d6602083018462000888565b9392505050565b60006020820190508181036000830152620008f8816200082a565b9050919050565b600081905092915050565b600082825260208201905092915050565b600062000928826200093b565b9050919050565b60008115159050919050565b600073ffffffffffffffffffffffffffffffffffffffff82169050919050565b6000819050919050565b62000970816200091b565b81146200097c57600080fd5b50565b6200098a816200092f565b81146200099657600080fd5b50565b61318080620009a96000396000f3fe6080604052600436106101095760003560e01c80638b41871311610095578063d285b7b411610064578063d285b7b4146102f8578063d702c0d814610323578063df1e66461461033f578063df99a2b214610368578063e0bab4c41461038457610109565b80638b4187131461024b578063ad5c464814610274578063b82687881461029f578063c8c61a79146102dc57610109565b80637362377b116100dc5780637362377b146101995780637535d246146101b05780637e68f511146101db57806389476069146101f757806389a302711461022057610109565b8063107c279f1461010b57806312b246dd146101155780634b3fb7f8146101315780636036cba31461015c575b005b6101136103af565b005b61012f600480360361012a91908101906121c0565b61044a565b005b34801561013d57600080fd5b506101466104ee565b6040516101539190612ab2565b60405180910390f35b34801561016857600080fd5b50610183600480360361017e9190810190612010565b610514565b6040516101909190612d43565b60405180910390f35b3480156101a557600080fd5b506101ae61052c565b005b3480156101bc57600080fd5b506101c561064a565b6040516101d29190612ab2565b60405180910390f35b6101f560048036036101f09190810190612107565b61066f565b005b34801561020357600080fd5b5061021e60048036036102199190810190612010565b610715565b005b34801561022c57600080fd5b506102356108e6565b6040516102429190612ab2565b60405180910390f35b34801561025757600080fd5b50610272600480360361026d919081019061224f565b61090c565b005b34801561028057600080fd5b50610289610ab9565b6040516102969190612ab2565b60405180910390f35b3480156102ab57600080fd5b506102c660048036036102c19190810190612010565b610adf565b6040516102d39190612d43565b60405180910390f35b6102f660048036036102f1919081019061237e565b610b74565b005b34801561030457600080fd5b5061030d610c14565b60405161031a9190612d43565b60405180910390f35b61033d600480360361033891908101906122bb565b610c1a565b005b34801561034b57600080fd5b506103666004803603610361919081019061240e565b610d82565b005b610382600480360361037d9190810190612107565b610e1e565b005b34801561039057600080fd5b50610399610ec4565b6040516103a69190612ab2565b60405180910390f35b600860009054906101000a900473ffffffffffffffffffffffffffffffffffffffff1673ffffffffffffffffffffffffffffffffffffffff163373ffffffffffffffffffffffffffffffffffffffff161461043f576040517f08c379a000000000000000000000000000000000000000000000000000000000815260040161043690612c83565b60405180910390fd5b61044834610eea565b565b600860009054906101000a900473ffffffffffffffffffffffffffffffffffffffff1673ffffffffffffffffffffffffffffffffffffffff163373ffffffffffffffffffffffffffffffffffffffff16146104da576040517f08c379a00000000000000000000000000000000000000000000000000000000081526004016104d190612c83565b60405180910390fd5b6104e78585858585610fbc565b5050505050565b600260009054906101000a900473ffffffffffffffffffffffffffffffffffffffff1681565b60066020528060005260406000206000915090505481565b600860009054906101000a900473ffffffffffffffffffffffffffffffffffffffff1673ffffffffffffffffffffffffffffffffffffffff163373ffffffffffffffffffffffffffffffffffffffff16146105bc576040517f08c379a00000000000000000000000000000000000000000000000000000000081526004016105b390612c83565b60405180910390fd5b600030905060008173ffffffffffffffffffffffffffffffffffffffff16319050600860009054906101000a900473ffffffffffffffffffffffffffffffffffffffff1673ffffffffffffffffffffffffffffffffffffffff166108fc829081150290604051600060405180830381858888f19350505050158015610645573d6000803e3d6000fd5b505050565b6000809054906101000a900473ffffffffffffffffffffffffffffffffffffffff1681565b600860009054906101000a900473ffffffffffffffffffffffffffffffffffffffff1673ffffffffffffffffffffffffffffffffffffffff163373ffffffffffffffffffffffffffffffffffffffff16146106ff576040517f08c379a00000000000000000000000000000000000000000000000000000000081526004016106f690612c83565b60405180910390fd5b61070d8686868686866111cf565b505050505050565b600860009054906101000a900473ffffffffffffffffffffffffffffffffffffffff1673ffffffffffffffffffffffffffffffffffffffff163373ffffffffffffffffffffffffffffffffffffffff16146107a5576040517f08c379a000000000000000000000000000000000000000000000000000000000815260040161079c90612c83565b60405180910390fd5b60008173ffffffffffffffffffffffffffffffffffffffff166370a08231306040518263ffffffff1660e01b81526004016107e09190612acd565b60206040518083038186803b1580156107f857600080fd5b505afa15801561080c573d6000803e3d6000fd5b505050506040513d601f19601f820116820180604052506108309190810190612437565b90508173ffffffffffffffffffffffffffffffffffffffff1663a9059cbb600860009054906101000a900473ffffffffffffffffffffffffffffffffffffffff16836040518363ffffffff1660e01b815260040161088f929190612ae8565b602060405180830381600087803b1580156108a957600080fd5b505af11580156108bd573d6000803e3d6000fd5b505050506040513d601f19601f820116820180604052506108e191908101906123e5565b505050565b600360009054906101000a900473ffffffffffffffffffffffffffffffffffffffff1681565b600560009054906101000a900473ffffffffffffffffffffffffffffffffffffffff1673ffffffffffffffffffffffffffffffffffffffff163373ffffffffffffffffffffffffffffffffffffffff161461099c576040517f08c379a000000000000000000000000000000000000000000000000000000000815260040161099390612ce3565b60405180910390fd5b60008060008060606000606088886109b79190810190612039565b965096509650965096509650965060008773ffffffffffffffffffffffffffffffffffffffff166370a08231306040518263ffffffff1660e01b8152600401610a009190612acd565b60206040518083038186803b158015610a1857600080fd5b505afa158015610a2c573d6000803e3d6000fd5b505050506040513d601f19601f82011682018060405250610a509190810190612437565b90508686820314610a96576040517f08c379a0000000000000000000000000000000000000000000000000000000008152600401610a8d90612d03565b60405180910390fd5b80600781905550610aab888689878787611313565b505050505050505050505050565b600160009054906101000a900473ffffffffffffffffffffffffffffffffffffffff1681565b600080600660008473ffffffffffffffffffffffffffffffffffffffff1673ffffffffffffffffffffffffffffffffffffffff1681526020019081526020016000205490506000811415610b68576040517f08c379a0000000000000000000000000000000000000000000000000000000008152600401610b5f90612d23565b60405180910390fd5b60018103915050919050565b600860009054906101000a900473ffffffffffffffffffffffffffffffffffffffff1673ffffffffffffffffffffffffffffffffffffffff163373ffffffffffffffffffffffffffffffffffffffff1614610c04576040517f08c379a0000000000000000000000000000000000000000000000000000000008152600401610bfb90612c83565b60405180910390fd5b610c0f838383611487565b505050565b60075481565b600860009054906101000a900473ffffffffffffffffffffffffffffffffffffffff1673ffffffffffffffffffffffffffffffffffffffff163373ffffffffffffffffffffffffffffffffffffffff1614610caa576040517f08c379a0000000000000000000000000000000000000000000000000000000008152600401610ca190612c83565b60405180910390fd5b60008873ffffffffffffffffffffffffffffffffffffffff166370a08231306040518263ffffffff1660e01b8152600401610ce59190612acd565b60206040518083038186803b158015610cfd57600080fd5b505afa158015610d11573d6000803e3d6000fd5b505050506040513d601f19601f82011682018060405250610d359190810190612437565b905060608989838a8a8a8a8a8a604051602001610d5a99989796959493929190612b63565b6040516020818303038152906040529050610d768a8a83611680565b50505050505050505050565b600860009054906101000a900473ffffffffffffffffffffffffffffffffffffffff1673ffffffffffffffffffffffffffffffffffffffff163373ffffffffffffffffffffffffffffffffffffffff1614610e12576040517f08c379a0000000000000000000000000000000000000000000000000000000008152600401610e0990612c83565b60405180910390fd5b610e1b81611af1565b50565b600860009054906101000a900473ffffffffffffffffffffffffffffffffffffffff1673ffffffffffffffffffffffffffffffffffffffff163373ffffffffffffffffffffffffffffffffffffffff1614610eae576040517f08c379a0000000000000000000000000000000000000000000000000000000008152600401610ea590612c83565b60405180910390fd5b610ebc868686868686611313565b505050505050565b600460009054906101000a900473ffffffffffffffffffffffffffffffffffffffff1681565b6000600160009054906101000a900473ffffffffffffffffffffffffffffffffffffffff1673ffffffffffffffffffffffffffffffffffffffff1682604051610f3290612a9d565b60006040518083038185875af1925050503d8060008114610f6f576040519150601f19603f3d011682016040523d82523d6000602084013e610f74565b606091505b5050905080610fb8576040517f08c379a0000000000000000000000000000000000000000000000000000000008152600401610faf90612cc3565b60405180910390fd5b5050565b600085905060008590506000600960009054906101000a900473ffffffffffffffffffffffffffffffffffffffff1690508273ffffffffffffffffffffffffffffffffffffffff1663095ea7b3600960009054906101000a900473ffffffffffffffffffffffffffffffffffffffff16886040518363ffffffff1660e01b815260040161104a929190612b3a565b602060405180830381600087803b15801561106457600080fd5b505af1158015611078573d6000803e3d6000fd5b505050506040513d601f19601f8201168201806040525061109c91908101906123e5565b508073ffffffffffffffffffffffffffffffffffffffff1663e2a7515e8484898989600b546040518763ffffffff1660e01b81526004016110e296959493929190612c1b565b600060405180830381600087803b1580156110fc57600080fd5b505af1158015611110573d6000803e3d6000fd5b505050508273ffffffffffffffffffffffffffffffffffffffff1663095ea7b3600960009054906101000a900473ffffffffffffffffffffffffffffffffffffffff1660006040518363ffffffff1660e01b8152600401611172929190612b11565b602060405180830381600087803b15801561118c57600080fd5b505af11580156111a0573d6000803e3d6000fd5b505050506040513d601f19601f820116820180604052506111c491908101906123e5565b505050505050505050565b60008573ffffffffffffffffffffffffffffffffffffffff166370a08231306040518263ffffffff1660e01b815260040161120a9190612acd565b60206040518083038186803b15801561122257600080fd5b505afa158015611236573d6000803e3d6000fd5b505050506040513d601f19601f8201168201806040525061125a9190810190612437565b9050611267878686611487565b60008673ffffffffffffffffffffffffffffffffffffffff166370a08231306040518263ffffffff1660e01b81526004016112a29190612acd565b60206040518083038186803b1580156112ba57600080fd5b505afa1580156112ce573d6000803e3d6000fd5b505050506040513d601f19601f820116820180604052506112f29190810190612437565b905060008282039050611308888a838888610fbc565b505050505050505050565b60008673ffffffffffffffffffffffffffffffffffffffff166370a08231306040518263ffffffff1660e01b815260040161134e9190612acd565b60206040518083038186803b15801561136657600080fd5b505afa15801561137a573d6000803e3d6000fd5b505050506040513d601f19601f8201168201806040525061139e9190810190612437565b90506113ae8787878787876111cf565b60008773ffffffffffffffffffffffffffffffffffffffff166370a08231306040518263ffffffff1660e01b81526004016113e99190612acd565b60206040518083038186803b15801561140157600080fd5b505afa158015611415573d6000803e3d6000fd5b505050506040513d601f19601f820116820180604052506114399190810190612437565b905081811161147d576040517f08c379a000000000000000000000000000000000000000000000000000000000815260040161147490612ca3565b60405180910390fd5b5050505050505050565b60008390508073ffffffffffffffffffffffffffffffffffffffff1663095ea7b3600d60009054906101000a900473ffffffffffffffffffffffffffffffffffffffff16856040518363ffffffff1660e01b81526004016114e9929190612b3a565b602060405180830381600087803b15801561150357600080fd5b505af1158015611517573d6000803e3d6000fd5b505050506040513d601f19601f8201168201806040525061153b91908101906123e5565b50600c60009054906101000a900473ffffffffffffffffffffffffffffffffffffffff1673ffffffffffffffffffffffffffffffffffffffff1634836040516115849190612a86565b60006040518083038185875af1925050503d80600081146115c1576040519150601f19603f3d011682016040523d82523d6000602084013e6115c6565b606091505b5050508073ffffffffffffffffffffffffffffffffffffffff1663095ea7b3600d60009054906101000a900473ffffffffffffffffffffffffffffffffffffffff1660006040518363ffffffff1660e01b8152600401611627929190612b11565b602060405180830381600087803b15801561164157600080fd5b505af1158015611655573d6000803e3d6000fd5b505050506040513d601f19601f8201168201806040525061167991908101906123e5565b5050505050565b8273ffffffffffffffffffffffffffffffffffffffff1663095ea7b3600560009054906101000a900473ffffffffffffffffffffffffffffffffffffffff16600185016040518363ffffffff1660e01b81526004016116e0929190612b3a565b602060405180830381600087803b1580156116fa57600080fd5b505af115801561170e573d6000803e3d6000fd5b505050506040513d601f19601f8201168201806040525061173291908101906123e5565b506060600160405190808252806020026020018201604052801561177057816020015b61175d611bc6565b8152602001906001900390816117555790505b509050606060036040519080825280602002602001820160405280156117b057816020015b61179d611bf6565b8152602001906001900390816117955790505b50905060405180604001604052803073ffffffffffffffffffffffffffffffffffffffff1681526020016000815250826000815181106117ec57fe5b60200260200101819052506117ff611c62565b604051806080016040528060001515815260200160008081111561181f57fe5b815260200160008081111561183057fe5b8152602001868152509050611843611ca0565b60018160000190600881111561185557fe5b9081600881111561186257fe5b81525050600081602001818152505081816040018190525061188387610adf565b816060018181525050308160a0019073ffffffffffffffffffffffffffffffffffffffff16908173ffffffffffffffffffffffffffffffffffffffff168152505080836000815181106118d257fe5b60200260200101819052506118e5611ca0565b6008816000019060088111156118f757fe5b9081600881111561190457fe5b815250506000816020018181525050308160a0019073ffffffffffffffffffffffffffffffffffffffff16908173ffffffffffffffffffffffffffffffffffffffff1681525050858160e00181905250808460018151811061196257fe5b6020026020010181905250611975611ca0565b61197d611c62565b604051806080016040528060011515815260200160008081111561199d57fe5b81526020016000808111156119ae57fe5b815260200160018b0181525090506000826000019060088111156119ce57fe5b908160088111156119db57fe5b8152505060008260200181815250508082604001819052506119fc8a610adf565b826060018181525050308260a0019073ffffffffffffffffffffffffffffffffffffffff16908173ffffffffffffffffffffffffffffffffffffffff16815250508186600281518110611a4b57fe5b6020026020010181905250600560009054906101000a900473ffffffffffffffffffffffffffffffffffffffff1673ffffffffffffffffffffffffffffffffffffffff1663a67a6a4588886040518363ffffffff1660e01b8152600401611ab3929190612be4565b600060405180830381600087803b158015611acd57600080fd5b505af1158015611ae1573d6000803e3d6000fd5b5050505050505050505050505050565b600160009054906101000a900473ffffffffffffffffffffffffffffffffffffffff1673ffffffffffffffffffffffffffffffffffffffff1663095ea7b3600e60009054906101000a900473ffffffffffffffffffffffffffffffffffffffff16836040518363ffffffff1660e01b8152600401611b70929190612b3a565b602060405180830381600087803b158015611b8a57600080fd5b505af1158015611b9e573d6000803e3d6000fd5b505050506040513d601f19601f82011682018060405250611bc291908101906123e5565b5050565b6040518060400160405280600073ffffffffffffffffffffffffffffffffffffffff168152602001600081525090565b60405180610100016040528060006008811115611c0f57fe5b815260200160008152602001611c23611d0c565b81526020016000815260200160008152602001600073ffffffffffffffffffffffffffffffffffffffff16815260200160008152602001606081525090565b6040518060800160405280600015158152602001600080811115611c8257fe5b8152602001600080811115611c9357fe5b8152602001600081525090565b60405180610100016040528060006008811115611cb957fe5b815260200160008152602001611ccd611d0c565b81526020016000815260200160008152602001600073ffffffffffffffffffffffffffffffffffffffff16815260200160008152602001606081525090565b6040518060800160405280600015158152602001600080811115611d2c57fe5b8152602001600080811115611d3d57fe5b8152602001600081525090565b600081359050611d59816130e1565b92915050565b600081359050611d6e816130f8565b92915050565b60008083601f840112611d8657600080fd5b8235905067ffffffffffffffff811115611d9f57600080fd5b602083019150836020820283011115611db757600080fd5b9250929050565b600082601f830112611dcf57600080fd5b8135611de2611ddd82612d8b565b612d5e565b91508181835260208401935060208101905083856020840282011115611e0757600080fd5b60005b83811015611e375781611e1d8882611fe6565b845260208401935060208301925050600181019050611e0a565b5050505092915050565b600082601f830112611e5257600080fd5b8135611e65611e6082612db3565b612d5e565b91508181835260208401935060208101905083856020840282011115611e8a57600080fd5b60005b83811015611eba5781611ea08882611fe6565b845260208401935060208301925050600181019050611e8d565b5050505092915050565b600081519050611ed38161310f565b92915050565b60008083601f840112611eeb57600080fd5b8235905067ffffffffffffffff811115611f0457600080fd5b602083019150836001820283011115611f1c57600080fd5b9250929050565b600082601f830112611f3457600080fd5b8135611f47611f4282612ddb565b612d5e565b91508082526020830160208301858383011115611f6357600080fd5b611f6e838284613067565b50505092915050565b600082601f830112611f8857600080fd5b8135611f9b611f9682612e07565b612d5e565b91508082526020830160208301858383011115611fb757600080fd5b611fc2838284613067565b50505092915050565b600060408284031215611fdd57600080fd5b81905092915050565b600081359050611ff581613126565b92915050565b60008151905061200a81613126565b92915050565b60006020828403121561202257600080fd5b600061203084828501611d4a565b91505092915050565b600080600080600080600060e0888a03121561205457600080fd5b60006120628a828b01611d5f565b97505060206120738a828b01611fe6565b96505060406120848a828b01611fe6565b95505060606120958a828b01611d5f565b945050608088013567ffffffffffffffff8111156120b257600080fd5b6120be8a828b01611f23565b93505060a06120cf8a828b01611fe6565b92505060c088013567ffffffffffffffff8111156120ec57600080fd5b6120f88a828b01611dbe565b91505092959891949750929550565b60008060008060008060c0878903121561212057600080fd5b600061212e89828a01611d4a565b965050602061213f89828a01611d4a565b955050604061215089828a01611fe6565b945050606087013567ffffffffffffffff81111561216d57600080fd5b61217989828a01611f77565b935050608061218a89828a01611fe6565b92505060a087013567ffffffffffffffff8111156121a757600080fd5b6121b389828a01611e41565b9150509295509295509295565b600080600080600060a086880312156121d857600080fd5b60006121e688828901611d4a565b95505060206121f788828901611d4a565b945050604061220888828901611fe6565b935050606061221988828901611fe6565b925050608086013567ffffffffffffffff81111561223657600080fd5b61224288828901611e41565b9150509295509295909350565b6000806000806080858703121561226557600080fd5b600061227387828801611d4a565b945050602061228487828801611fcb565b935050606085013567ffffffffffffffff8111156122a157600080fd5b6122ad87828801611ed9565b925092505092959194509250565b60008060008060008060008060c0898b0312156122d757600080fd5b60006122e58b828c01611d4a565b98505060206122f68b828c01611fe6565b97505060406123078b828c01611d4a565b965050606089013567ffffffffffffffff81111561232457600080fd5b6123308b828c01611ed9565b955095505060806123438b828c01611fe6565b93505060a089013567ffffffffffffffff81111561236057600080fd5b61236c8b828c01611d74565b92509250509295985092959890939650565b60008060006060848603121561239357600080fd5b60006123a186828701611d4a565b93505060206123b286828701611fe6565b925050604084013567ffffffffffffffff8111156123cf57600080fd5b6123db86828701611f77565b9150509250925092565b6000602082840312156123f757600080fd5b600061240584828501611ec4565b91505092915050565b60006020828403121561242057600080fd5b600061242e84828501611fe6565b91505092915050565b60006020828403121561244957600080fd5b600061245784828501611ffb565b91505092915050565b600061246c8383612931565b905092915050565b60006124808383612a39565b60408301905092915050565b60006124988383612a68565b60208301905092915050565b6124ad81612fc5565b82525050565b6124bc81612f32565b82525050565b6124cb81612f32565b82525050565b60006124dc82612e63565b6124e68185612ec1565b9350836020820285016124f885612e33565b8060005b8581101561253457848403895281516125158582612460565b945061252083612e9a565b925060208a019950506001810190506124fc565b50829750879550505050505092915050565b600061255182612e6e565b61255b8185612ed2565b935061256683612e43565b8060005b8381101561259757815161257e8882612474565b975061258983612ea7565b92505060018101905061256a565b5085935050505092915050565b60006125b08385612ee3565b93507f07ffffffffffffffffffffffffffffffffffffffffffffffffffffffffffffff8311156125df57600080fd5b6020830292506125f0838584613067565b82840190509392505050565b600061260782612e79565b6126118185612ee3565b935061261c83612e53565b8060005b8381101561264d578151612634888261248c565b975061263f83612eb4565b925050600181019050612620565b5085935050505092915050565b61266381612f56565b82525050565b60006126758385612f05565b9350612682838584613067565b61268b836130a9565b840190509392505050565b60006126a182612e8f565b6126ab8185612f16565b93506126bb818560208601613076565b80840191505092915050565b60006126d282612e84565b6126dc8185612ef4565b93506126ec818560208601613076565b6126f5816130a9565b840191505092915050565b61270981612fd7565b82525050565b61271881612ffb565b82525050565b6127278161300d565b82525050565b6127368161301f565b82525050565b61274581613031565b82525050565b6000612758601883612f21565b91507f63616c6c6572206973206e6f7420746865206f776e65722100000000000000006000830152602082019050919050565b6000612798602683612f21565b91507f456e642062616c616e6365206d7573742065786365656420737461727420626160008301527f6c616e63652e00000000000000000000000000000000000000000000000000006020830152604082019050919050565b60006127fe601283612f21565b91507f6661696c656420746f20676574207765746800000000000000000000000000006000830152602082019050919050565b600061283e602c83612f21565b91507f466c6173684c6f616e3a20636f756c642062652063616c6c656420627920447960008301527f447820706f6f6c206f6e6c7900000000000000000000000000000000000000006020830152604082019050919050565b60006128a4601d83612f21565b91507f636f6e747261637420646964206e6f742067657420746865206c6f616e0000006000830152602082019050919050565b60006128e4600083612f16565b9150600082019050919050565b60006128fe601c83612f21565b91507f466c6173684c6f616e3a20556e737570706f7274656420746f6b656e000000006000830152602082019050919050565b60006101608301600083015161294a600086018261270f565b50602083015161295d6020860182612a68565b50604083015161297060408601826129e4565b50606083015161298360c0860182612a68565b50608083015161299660e0860182612a68565b5060a08301516129aa6101008601826124b3565b5060c08301516129be610120860182612a68565b5060e08301518482036101408601526129d782826126c7565b9150508091505092915050565b6080820160008201516129fa600085018261265a565b506020820151612a0d602085018261271e565b506040820151612a20604085018261272d565b506060820151612a336060850182612a68565b50505050565b604082016000820151612a4f60008501826124b3565b506020820151612a626020850182612a68565b50505050565b612a7181612fbb565b82525050565b612a8081612fbb565b82525050565b6000612a928284612696565b915081905092915050565b6000612aa8826128d7565b9150819050919050565b6000602082019050612ac760008301846124c2565b92915050565b6000602082019050612ae260008301846124a4565b92915050565b6000604082019050612afd60008301856124a4565b612b0a6020830184612a77565b9392505050565b6000604082019050612b2660008301856124c2565b612b33602083018461273c565b9392505050565b6000604082019050612b4f60008301856124c2565b612b5c6020830184612a77565b9392505050565b600060e082019050612b78600083018c6124c2565b612b85602083018b612a77565b612b92604083018a612a77565b612b9f60608301896124c2565b8181036080830152612bb2818789612669565b9050612bc160a0830186612a77565b81810360c0830152612bd48184866125a4565b90509a9950505050505050505050565b60006040820190508181036000830152612bfe8185612546565b90508181036020830152612c1281846124d1565b90509392505050565b600060c082019050612c306000830189612700565b612c3d6020830188612700565b612c4a6040830187612a77565b612c576060830186612a77565b8181036080830152612c6981856125fc565b9050612c7860a0830184612a77565b979650505050505050565b60006020820190508181036000830152612c9c8161274b565b9050919050565b60006020820190508181036000830152612cbc8161278b565b9050919050565b60006020820190508181036000830152612cdc816127f1565b9050919050565b60006020820190508181036000830152612cfc81612831565b9050919050565b60006020820190508181036000830152612d1c81612897565b9050919050565b60006020820190508181036000830152612d3c816128f1565b9050919050565b6000602082019050612d586000830184612a77565b92915050565b6000604051905081810181811067ffffffffffffffff82111715612d8157600080fd5b8060405250919050565b600067ffffffffffffffff821115612da257600080fd5b602082029050602081019050919050565b600067ffffffffffffffff821115612dca57600080fd5b602082029050602081019050919050565b600067ffffffffffffffff821115612df257600080fd5b601f19601f8301169050602081019050919050565b600067ffffffffffffffff821115612e1e57600080fd5b601f19601f8301169050602081019050919050565b6000819050602082019050919050565b6000819050602082019050919050565b6000819050602082019050919050565b600081519050919050565b600081519050919050565b600081519050919050565b600081519050919050565b600081519050919050565b6000602082019050919050565b6000602082019050919050565b6000602082019050919050565b600082825260208201905092915050565b600082825260208201905092915050565b600082825260208201905092915050565b600082825260208201905092915050565b600082825260208201905092915050565b600081905092915050565b600082825260208201905092915050565b6000612f3d82612f9b565b9050919050565b6000612f4f82612f9b565b9050919050565b60008115159050919050565b6000819050612f70826130ba565b919050565b6000819050612f83826130c7565b919050565b6000819050612f96826130d4565b919050565b600073ffffffffffffffffffffffffffffffffffffffff82169050919050565b6000819050919050565b6000612fd082613043565b9050919050565b6000612fe282612fe9565b9050919050565b6000612ff482612f9b565b9050919050565b600061300682612f62565b9050919050565b600061301882612f75565b9050919050565b600061302a82612f88565b9050919050565b600061303c82612fbb565b9050919050565b600061304e82613055565b9050919050565b600061306082612f9b565b9050919050565b82818337600083830152505050565b60005b83811015613094578082015181840152602081019050613079565b838111156130a3576000848401525b50505050565b6000601f19601f8301169050919050565b600981106130c457fe5b50565b600181106130d157fe5b50565b600181106130de57fe5b50565b6130ea81612f32565b81146130f557600080fd5b50565b61310181612f44565b811461310c57600080fd5b50565b61311881612f56565b811461312357600080fd5b50565b61312f81612fbb565b811461313a57600080fd5b5056fea365627a7a723158204a7b079c73dbb567310f5eeab21a29a5b5a6aa6a863c3d12326bd9f13937a38d6c6578706572696d656e74616cf564736f6c63430005100040",
  "source": "pragma solidity ^0.5.0;\npragma experimental ABIEncoderV2;\n\ninterface Structs {\n    struct Val {\n        uint256 value;\n    }\n\n    enum ActionType {\n      Deposit,   // supply tokens\n      Withdraw,  // borrow tokens\n      Transfer,  // transfer balance between accounts\n      Buy,       // buy an amount of some token (externally)\n      Sell,      // sell an amount of some token (externally)\n      Trade,     // trade tokens against another account\n      Liquidate, // liquidate an undercollateralized or expiring account\n      Vaporize,  // use excess tokens to zero-out a completely negative account\n      Call       // send arbitrary data to an address\n    }\n\n    enum AssetDenomination {\n        Wei // the amount is denominated in wei\n    }\n\n    enum AssetReference {\n        Delta // the amount is given as a delta from the current value\n    }\n\n    struct AssetAmount {\n        bool sign; // true if positive\n        AssetDenomination denomination;\n        AssetReference ref;\n        uint256 value;\n    }\n\n    struct ActionArgs {\n        ActionType actionType;\n        uint256 accountId;\n        AssetAmount amount;\n        uint256 primaryMarketId;\n        uint256 secondaryMarketId;\n        address otherAddress;\n        uint256 otherAccountId;\n        bytes data;\n    }\n\n    struct Info {\n        address owner;  // The address that owns the account\n        uint256 number; // A nonce that allows a single address to control many accounts\n    }\n\n    struct Wei {\n        bool sign; // true if positive\n        uint256 value;\n    }\n}\n\ncontract DyDxPool is Structs {\n    function getAccountWei(Info memory account, uint256 marketId) public view returns (Wei memory);\n    function operate(Info[] memory, ActionArgs[] memory) public;\n}\n\n\npragma solidity ^0.5.0;\n\n\n/**\n * @dev Interface of the ERC20 standard as defined in the EIP. Does not include\n * the optional functions; to access them see `ERC20Detailed`.\n */\ninterface IERC20 {\n    function totalSupply() external view returns (uint256);\n    function balanceOf(address account) external view returns (uint256);\n    function transfer(address recipient, uint256 amount) external returns (bool);\n    function allowance(address owner, address spender) external view returns (uint256);\n    function approve(address spender, uint256 amount) external returns (bool);\n    function transferFrom(address sender, address recipient, uint256 amount) external returns (bool);\n    event Transfer(address indexed from, address indexed to, uint256 value);\n    event Approval(address indexed owner, address indexed spender, uint256 value);\n}\n\n\npragma solidity ^0.5.0;\n\n\n\n\ncontract DyDxFlashLoan is Structs {\n    \n    address public POOL; \n    address public WETH;\n    address public SAI; \n    address public USDC; \n    address public DAI;  \n    DyDxPool pool;\n    mapping(address => uint256) public currencies;\n\n    constructor() public {\n    }\n\n    modifier onlyPool() {\n        require(\n            msg.sender == address(pool),\n            \"FlashLoan: could be called by DyDx pool only\"\n        );\n        _;\n    }\n\n    function initDYDX(address poolAddress, address wethAddress, address saiAddress, address usdAddress, address daiAddress) internal {\n        POOL = poolAddress;\n        WETH = wethAddress;\n        SAI  = saiAddress;\n        USDC = usdAddress;\n        DAI  = daiAddress;\n        \n        currencies[WETH] = 1;\n        currencies[SAI] = 2;\n        currencies[USDC] = 3;\n        currencies[DAI] = 4;\n        \n        pool = DyDxPool(POOL);\n    }\n\n    function tokenToMarketId(address token) public view returns (uint256) {\n        uint256 marketId = currencies[token];\n        require(marketId != 0, \"FlashLoan: Unsupported token\");\n        return marketId - 1;\n    }\n\n    // the DyDx will call `callFunction(address sender, Info memory accountInfo, bytes memory data) public` after during `operate` call\n    function flashloan(address token, uint256 amount, bytes memory data)\n        internal\n    {\n        IERC20(token).approve(address(pool), amount + 1);\n        Info[] memory infos = new Info[](1);\n        ActionArgs[] memory args = new ActionArgs[](3);\n\n        infos[0] = Info(address(this), 0);\n\n        AssetAmount memory wamt = AssetAmount(\n            false,\n            AssetDenomination.Wei,\n            AssetReference.Delta,\n            amount\n        );\n        ActionArgs memory withdraw;\n        withdraw.actionType = ActionType.Withdraw;\n        withdraw.accountId = 0;\n        withdraw.amount = wamt;\n        withdraw.primaryMarketId = tokenToMarketId(token);\n        withdraw.otherAddress = address(this);\n\n        args[0] = withdraw;\n\n        ActionArgs memory call;\n        call.actionType = ActionType.Call;\n        call.accountId = 0;\n        call.otherAddress = address(this);\n        call.data = data;\n\n        args[1] = call;\n\n        ActionArgs memory deposit;\n        AssetAmount memory damt = AssetAmount(\n            true,\n            AssetDenomination.Wei,\n            AssetReference.Delta,\n            amount + 1\n        );\n        deposit.actionType = ActionType.Deposit;\n        deposit.accountId = 0;\n        deposit.amount = damt;\n        deposit.primaryMarketId = tokenToMarketId(token);\n        deposit.otherAddress = address(this);\n\n        args[2] = deposit;\n\n        pool.operate(infos, args);\n    }\n}\n\n\npragma solidity ^0.5.0;\n\n\ncontract IOneSplit {\n    function getExpectedReturn(\n        IERC20 fromToken,\n        IERC20 toToken,\n        uint256 amount,\n        uint256 parts,\n        uint256 disableFlags\n    )\n        public\n        view\n        returns(\n            uint256 returnAmount,\n            uint256[] memory distribution\n        );\n\n    function swap(\n        IERC20 fromToken,\n        IERC20 toToken,\n        uint256 amount,\n        uint256 minReturn,\n        uint256[] memory distribution,\n        uint256 disableFlags\n    ) public payable;\n}\n\ncontract TradingBot is DyDxFlashLoan {\n    uint256 public loan;\n\n    // Addresses\n    address payable OWNER;\n\n    // OneSplit Config\n    address ONE_SPLIT_ADDRESS; //0xC586BeF4a0992C495Cf22e1aeEE4E446CECDee0E;\n    uint256 PARTS = 10;\n    uint256 FLAGS = 0;\n\n    // ZRX Config\n    address ZRX_EXCHANGE_ADDRESS;    //0x61935CbDd02287B511119DDb11Aeb42F1593b7Ef;\n    address ZRX_ERC20_PROXY_ADDRESS; //0x95E6F48254609A6ee006F7D493c8e5fB97094ceF;\n    address ZRX_STAKING_PROXY;       //0xa26e80e7Dea86279c6d778D702Cc413E6CFfA777; // Fee collector\n\n    // Modifiers\n    modifier onlyOwner() {\n        require(msg.sender == OWNER, \"caller is not the owner!\");\n        _;\n    }\n\n    // Allow the contract to receive Ether\n    function () external payable  {}\n    \n\n    constructor(address dydxPool, address weth, address sai, address usdc, address dai, address oneInchSplit, address zrxExchange,  address zrxErc20Proxy, address zrxStakingProxy) public payable {\n        \n        // DYDX - MAINNET\n        // address pool = 0x1E0447b19BB6EcFdAe1e4AE1694b0C3659614e4e;\n        // address weth = 0xC02aaA39b223FE8D0A0e5C4F27eAD9083C756Cc2;\n        // address sai  = 0x89d24A6b4CcB1B6fAA2625fE562bDD9a23260359;\n        // address usdc = 0xA0b86991c6218b36c1d19D4a2e9Eb0cE3606eB48;\n        // address dai  = 0x6B175474E89094C44Da98b954EedeAC495271d0F;\n        \n        // ONE INCH - MAINNET\n        // ONE_SPLIT_ADDRESS = 0xC586BeF4a0992C495Cf22e1aeEE4E446CECDee0E;\n        \n        // ZRX - MAINNET\n        // ZRX_EXCHANGE_ADDRESS = 0x61935CbDd02287B511119DDb11Aeb42F1593b7Ef;\n        // ZRX_ERC20_PROXY_ADDRESS = 0x95E6F48254609A6ee006F7D493c8e5fB97094ceF;\n        // ZRX_STAKING_PROXY = 0xa26e80e7Dea86279c6d778D702Cc413E6CFfA777; // Fee collector\n        \n        // Set all addresses from constructor instead of hardcoding\n        initDYDX(dydxPool, weth, sai, usdc, dai);\n        initZRX(zrxExchange, zrxErc20Proxy, zrxStakingProxy);\n        initOneInch(oneInchSplit);\n        \n        _getWeth(msg.value);\n        _approveWeth(msg.value);\n        OWNER = msg.sender;\n    }\n    \n    function initZRX(address zrxExchange,  address zrxErc20Proxy, address zrxStakingProxy) internal {\n        ZRX_EXCHANGE_ADDRESS = zrxExchange;\n        ZRX_ERC20_PROXY_ADDRESS = zrxErc20Proxy;\n        ZRX_STAKING_PROXY = zrxStakingProxy; // Fee collector\n    }\n    \n    function initOneInch(address oneSplit) internal {\n        ONE_SPLIT_ADDRESS = oneSplit;\n    }\n\n    function getFlashloan(address flashToken, uint256 flashAmount, address arbToken, bytes calldata zrxData, uint256 oneSplitMinReturn, uint256[] calldata oneSplitDistribution) external payable onlyOwner {\n        uint256 balanceBefore = IERC20(flashToken).balanceOf(address(this));\n        bytes memory data = abi.encode(flashToken, flashAmount, balanceBefore, arbToken, zrxData, oneSplitMinReturn, oneSplitDistribution);\n        flashloan(flashToken, flashAmount, data); // execution goes to `callFunction`\n\n        // and this point we have succefully paid the dept\n    }\n\n    function callFunction(\n        address, /* sender */\n        Info calldata, /* accountInfo */\n        bytes calldata data\n    ) external onlyPool {\n        (address flashToken, uint256 flashAmount, uint256 balanceBefore, address arbToken, bytes memory zrxData, uint256 oneSplitMinReturn, uint256[] memory oneSplitDistribution) = abi\n            .decode(data, (address, uint256, uint256, address, bytes, uint256, uint256[]));\n        uint256 balanceAfter = IERC20(flashToken).balanceOf(address(this));\n        require(\n            balanceAfter - balanceBefore == flashAmount,\n            \"contract did not get the loan\"\n        );\n        loan = balanceAfter;\n\n        // do whatever you want with the money\n        // the dept will be automatically withdrawn from this contract at the end of execution\n        _arb(flashToken, arbToken, flashAmount, zrxData, oneSplitMinReturn, oneSplitDistribution);\n    }\n\n    function arb(address _fromToken, address _toToken, uint256 _fromAmount, bytes memory _0xData, uint256 _1SplitMinReturn, uint256[] memory _1SplitDistribution) onlyOwner payable public {\n        _arb(_fromToken, _toToken, _fromAmount, _0xData, _1SplitMinReturn, _1SplitDistribution);\n    }\n\n    function _arb(address _fromToken, address _toToken, uint256 _fromAmount, bytes memory _0xData, uint256 _1SplitMinReturn, uint256[] memory _1SplitDistribution) internal {\n        // Track original balance\n        uint256 _startBalance = IERC20(_fromToken).balanceOf(address(this));\n\n        // Perform the arb trade\n        _trade(_fromToken, _toToken, _fromAmount, _0xData, _1SplitMinReturn, _1SplitDistribution);\n\n        // Track result balance\n        uint256 _endBalance = IERC20(_fromToken).balanceOf(address(this));\n\n        // Require that arbitrage is profitable\n        require(_endBalance > _startBalance, \"End balance must exceed start balance.\");\n    }\n\n    function trade(address _fromToken, address _toToken, uint256 _fromAmount, bytes memory _0xData, uint256 _1SplitMinReturn, uint256[] memory _1SplitDistribution) onlyOwner payable public {\n        _trade(_fromToken, _toToken, _fromAmount, _0xData, _1SplitMinReturn, _1SplitDistribution);\n    }\n\n    function _trade(address _fromToken, address _toToken, uint256 _fromAmount, bytes memory _0xData, uint256 _1SplitMinReturn, uint256[] memory _1SplitDistribution) internal {\n        // Track the balance of the token RECEIVED from the trade\n        uint256 _beforeBalance = IERC20(_toToken).balanceOf(address(this));\n\n        // Swap on 0x: give _fromToken, receive _toToken\n        _zrxSwap(_fromToken, _fromAmount, _0xData);\n\n        // Calculate the how much of the token we received\n        uint256 _afterBalance = IERC20(_toToken).balanceOf(address(this));\n\n        // Read _toToken balance after swap\n        uint256 _toAmount = _afterBalance - _beforeBalance;\n\n        // Swap on 1Split: give _toToken, receive _fromToken\n        _oneSplitSwap(_toToken, _fromToken, _toAmount, _1SplitMinReturn, _1SplitDistribution);\n    }\n\n    function zrxSwap(address _from, uint256 _amount, bytes memory _calldataHexString) onlyOwner public payable {\n        _zrxSwap(_from, _amount, _calldataHexString);\n    }\n\n    function _zrxSwap(address _from, uint256 _amount, bytes memory _calldataHexString) internal {\n        // Approve tokens\n        IERC20 _fromIERC20 = IERC20(_from);\n        _fromIERC20.approve(ZRX_ERC20_PROXY_ADDRESS, _amount);\n\n        // Swap tokens\n        address(ZRX_EXCHANGE_ADDRESS).call.value(msg.value)(_calldataHexString);\n\n        // Reset approval\n        _fromIERC20.approve(ZRX_ERC20_PROXY_ADDRESS, 0);\n    }\n\n    function oneSplitSwap(address _from, address _to, uint256 _amount, uint256 _minReturn, uint256[] memory _distribution) onlyOwner public payable {\n        _oneSplitSwap(_from, _to, _amount, _minReturn, _distribution);\n    }\n\n    function _oneSplitSwap(address _from, address _to, uint256 _amount, uint256 _minReturn, uint256[] memory _distribution) internal {\n        // Setup contracts\n        IERC20 _fromIERC20 = IERC20(_from);\n        IERC20 _toIERC20 = IERC20(_to);\n        IOneSplit _oneSplitContract = IOneSplit(ONE_SPLIT_ADDRESS);\n\n        // Approve tokens\n        _fromIERC20.approve(ONE_SPLIT_ADDRESS, _amount);\n\n        // Swap tokens: give _from, get _to\n        _oneSplitContract.swap(_fromIERC20, _toIERC20, _amount, _minReturn, _distribution, FLAGS);\n\n        // Reset approval\n        _fromIERC20.approve(ONE_SPLIT_ADDRESS, 0);\n    }\n\n    function getWeth() public payable onlyOwner {\n        _getWeth(msg.value);\n    }\n\n    function _getWeth(uint256 _amount) internal {\n        (bool success, ) = WETH.call.value(_amount)(\"\");\n        require(success, \"failed to get weth\");\n    }\n\n    function approveWeth(uint256 _amount) public onlyOwner {\n        _approveWeth(_amount);\n    }\n\n    function _approveWeth(uint256 _amount) internal {\n        IERC20(WETH).approve(ZRX_STAKING_PROXY, _amount);\n    }\n\n    // KEEP THIS FUNCTION IN CASE THE CONTRACT RECEIVES TOKENS!\n    function withdrawToken(address _tokenAddress) public onlyOwner {\n        uint256 balance = IERC20(_tokenAddress).balanceOf(address(this));\n        IERC20(_tokenAddress).transfer(OWNER, balance);\n    }\n\n    // KEEP THIS FUNCTION IN CASE THE CONTRACT KEEPS LEFTOVER ETHER!\n    function withdrawEther() public onlyOwner {\n        address self = address(this); // workaround for a possible solidity bug\n        uint256 balance = self.balance;\n        address(OWNER).transfer(balance);\n    }\n}",
  "sourcePath": "/home/ec2-user/environment/projects/defi-advanced-bot/contracts/TradingBot.sol",
  "compiler": {
    "name": "solc",
    "version": "0.5.16+commit.9c3226ce.Emscripten.clang"
  },
  "schemaVersion": "3.3.3",
  "updatedAt": "2021-01-28T20:01:01.529Z",
  "networkType": "ethereum",
  "devdoc": {
    "methods": {}
  },
  "userdoc": {
    "methods": {}
  }
}